:020000040800F2
:10000000D80E0020C101000805180008811300085F
:10001000CB140008590E00086521000800000000FC
:10002000000000000000000000000000B11B0008FC
:100030002112000800000000D9180008A11C0008C7
:10004000DB010008DB010008DB010008DB01000820
:10005000DB010008DB010008DB010008DB01000810
:10006000DB010008DB010008DB010008DB01000800
:10007000DB010008DB010008DB010008DB010008F0
:10008000DB010008DB010008DB010008DB010008E0
:10009000DB010008DB010008DB010008DB010008D0
:1000A000DB010008DB010008DB010008DB010008C0
:1000B000DB010008DB010008DB010008DB010008B0
:1000C000DB010008DB010008DB010008DB010008A0
:1000D000DB010008591E0008C11E0008111F00089E
:1000E000DB010008DB010008DB010008DB01000880
:1000F000DB010008DB010008DB010008DB01000870
:10010000DB010008DB010008DB010008DB0100085F
:10011000B91D0008DB010008DB010008DB01000855
:10012000DB010008DB010008DB010008DB0100083F
:10013000DB010008DB010008DB010008DB0100082F
:10014000DB010008DB010008DB010008DB0100081F
:10015000DB010008DB010008DB010008951F000837
:10016000DB010008DB010008DB010008DB010008FF
:10017000DB010008DB010008DB010008DB010008EF
:10018000DB010008DB010008091E0008DB01000894
:10019000DB010008DB010008DB010008DB010008CF
:1001A000DB010008DB010008DB010008DFF80CD0F0
:1001B00000F024FB00480047E1250008D80E00208D
:1001C0000648804706480047FEE7FEE7FEE7FEE7F1
:1001D000FEE7FEE7FEE7FEE7FEE7FEE75D1D00083F
:1001E000AD0100080FB400B58DB010A909900B90B7
:1001F00000914FF0FF300A9000200C9005480690C7
:10020000054807906A4609A80F9900F0BFF90DB09C
:100210005DF814FBA9050008C70500082DE9FF4F8C
:10022000087881B09946FF2805D0491C2D2804D0B4
:100230000024002308E000230BE00124F9E703EB8E
:10024000830300EB4303491C0878FF28F7D104B16E
:100250005B4200200090147801462D2C01D02B2CFD
:1002600004D1521C2D2C12D00024009400251678A5
:10027000FF2E0ED00A24A0FB04C801FB0481002736
:1002800000FB0711521C16EB0C006941EFE701243B
:10029000EBE7994450EA01020ED00024AA4D26460D
:1002A000DFF8A88200F081FA82468B46B9F100009F
:1002B00009DAC9F100071BE001980021C0E900112B
:1002C00005B0BDE8F08F074612E0F80707D02246D8
:1002D0002B463046414600F087F9064688462246BE
:1002E0002B461046194600F07FF904460D467F1054
:1002F000002FEAD1B9F1000F324643465046594625
:1003000002DA00F0E3F901E000F06EF9009A0AB1B8
:1003100081F00041019AC2E90001D1E72DE9FF4FC8
:100320001F468DB0D7E901464FF0FF382E204546D5
:100330004FF000090B90B9696D1C0E988847396A17
:10034000824688470028F6D1BAF1FF3F0AD024F44C
:10035000D064002E11DDBAF12B0F08D0BAF12D0FA9
:100360000BD102E0404611B0ABE744F48064B969B8
:100370006D1C0E9888478246761E6946600501D539
:100380002D2000E02B208DF8000001F1010B0DF174
:10039000200809E0B9696D1C0E98884782460F98BD
:1003A00044F40074761E0560002E02DDBAF1300FB1
:1003B000F0D00B998A453ED144F0800406E00F99B5
:1003C000681CA9F1010944F400740860B9696D1C46
:1003D000761E0E98884782463028F0D02BE00B9985
:1003E0008A4505D1200603D444F08004761E18E027
:1003F000504602F03EF808B30DF11301761E44F4A6
:1004000000748B4508D2AAF130000BF8010B2006CE
:1004100007D5A9F1010003E0200602D409F101008B
:100420008146A00502D50F99681C0860B9696D1C4A
:100430000E9888478246002ED1DC53E0002E51DD15
:10044000BAF1650F02D0BAF1450F4BD1A00549D5DD
:10045000B9696D1C24F44074761E0E988847824654
:10046000002E0CDD2B2804D0BAF12D0F07D144F457
:100470008074B9696D1C0E9888478246761EE00527
:1004800001D52D2100E02B2108F8011BCDF82C808F
:1004900021E00DF12901761E44F4007488450CD248
:1004A000AAF1300010F0FF0088F8000002D10B998B
:1004B000884509D908F1010806E0E00501D524487E
:1004C00001E042F20F708146B9696D1C0E988847B1
:1004D00082460F980560002E04DD504601F0C9FFEA
:1004E0000028D6D1F9690E988847FF208BF80000C4
:1004F00088F800000020069007904B466A4608A93D
:1005000006A8FFF78BFEA00502D46FF001002AE7D2
:1005100014F0240F0AD0E00714D1DDE90612386880
:10052000031D3B600068C0E900120BE0DDE9060135
:1005300000F047F90146E00704D13868021D3A602F
:100540000068016028460EE7000024400000F03FEC
:10055000F1D8FFFF30B50B460146002020220124D0
:1005600009E021FA02F59D4205D303FA02F5491B81
:1005700004FA02F52844151EA2F10102F1DC30BD97
:10058000026811441378016018467047D16004492D
:1005900051610449116200211161114600F064B9F2
:1005A000810500085F080008426842B1016811F83F
:1005B000013B23B1521EC0E90012184670470121C9
:1005C000C160881E704742685AB1C368016843B968
:1005D00083688B4205D0491E521CC0E900120020DE
:1005E00070474FF0FF3070472DE9FE4F81EA03045A
:1005F00004F0004421F0004100944FF0000B23F080
:10060000004350EA01045ED052EA03045BD0C3F316
:100610000A54C1F30A552C44A4F2F3340194A0FB0C
:100620000254C1F3130141F48011C3F3130343F4E3
:10063000801301FB024400FB034E840A970A44EA3C
:10064000815447EA8357A4FB076802958D0A05FB8E
:1006500007854FEA932C04FB0C542705029D4FEAB3
:10066000065847EA1637B5EB08056EEB070C870E00
:10067000920E47EA811742EA8312A7FB0201B6EB0A
:100680000B0164EB00042B0D43EA0C335E1844EBC2
:100690001C50DA465146E7FB0201C5F313044FEA4A
:1006A0000B3343EA14534FEA0432019C43EA060336
:1006B000A4F10C040294009CCDE900B400F0B0FA5F
:1006C00003B0BDE8F08F00200146F9E72DE9F04DB9
:1006D00081EA030404F0004B21F0004514464FF07A
:1006E000000A23F0004150EA050220D054EA01023A
:1006F0001DD0C5F30A570246C5F31303C1F3130017
:10070000C1F30A5640F4801543F48013A7EB0608A2
:10071000101BD64608F2FD3873EB050002D308F132
:10072000010801E092185B41B8F1000F03DA0020E4
:100730000146BDE8F08D00204FF480110646844646
:100740000EE0171B73EB050705D3121B63EB0503C4
:1007500006434CEA010C49084FEA300092185B410D
:1007600050EA0107EDD152EA030012D082EA0400F8
:1007700083EA0501084305D0101BAB4106D20122D4
:10078000002306E000224FF0004302E06FF0010278
:1007900053101AEB06004CEB085110EB0A0041EB2A
:1007A0000B01BDE8F04D00F02CBA0EB540F233421B
:1007B00002920022CDE90022134600F031FA03B084
:1007C00000BD01F0004330B421F0004150EA0102C5
:1007D00006D00A0DA2F56072C1F31301002A02DCF3
:1007E00030BC00207047440F44EAC104C100E01847
:1007F00030BC00EBC25000F0CDB90000064C074DF4
:1008000006E0E06840F0010394E8070098471034E0
:10081000AC42F6D3FFF7CEFCE02800080029000820
:10082000202A04DB203A00FA02F1002070479140B0
:10083000C2F1200320FA03F3194390407047202AA5
:1008400004DB203A21FA02F00021704721FA02F37A
:10085000D040C2F120029140084319467047C0B20F
:100860004FF4F05100F02ABA2DE9F34F8BB04FF05E
:10087000000801F10C000C464FF0010B46460DF14B
:10088000080A01906269012101989047051E2DD048
:10089000252D2CD0216A8847C0B1626901210198B9
:1008A0009047216A88470028F7D1411E6269019864
:1008B000904700E0761CA1690B988847216A884719
:1008C0000028F7D1E1690B988847DBE7A1690B980D
:1008D00088470746A84201D1761CD3E7E1690B9807
:1008E00088477F1C02D1B8F1000F6FD046E1002786
:1008F00062693D463946019890472A2804D16269C9
:100900000121019890470125DFF884926269012155
:1009100001989047A0F130010A290AD24F45E5DC41
:1009200007EB870100EB4107303FDFD445F01005AE
:10093000ECE7E90601D46FF000476C280AD04C2898
:1009400014D0682815D06A280DD074281CD07A28B5
:100950001AD01DE062690121019890476C2802D0ED
:1009600045F0040514E045F002050DE045F02005D2
:100970000AE06269012101989047682802D045F099
:10098000080505E045F4006562690121019890477A
:10099000C4E9015765283DD019DC58287AD00CDC11
:1009A000452837D004DC252826D0412831D131E034
:1009B00046282FD047282CD12CE05B2877D06128FF
:1009C00028D063287CD0642823D15AE0D0E06F2857
:1009D00048D008DC66281DD067281BD0692821D0A4
:1009E0006E2816D127E0702845D0732868D0752866
:1009F00047D078280DD14DE0A1690B98884705466E
:100A000025283FF469AFE1690B9888476D1C3FF4D6
:100A10006AAFB3E023466A466FF001000B99FFF717
:100A20007DFC9EE045F040006060A80723464FF043
:100A3000000236D43EE0E8077FF447AF2068011D8E
:100A400021600068290501D506701BE7290701D53B
:100A5000068017E7A90703D5F117C0E9006111E780
:100A600006600FE745F040006060A80723464FF09E
:100A7000080216D41EE040F60E0125EA010060606F
:100A800016E045F040006060A80723464FF00A02D8
:100A900007D40FE045F040006060A80708D5234662
:100AA00010226FF001000B99AFF3008059E007E0CE
:100AB000234610226FF001000B99AFF3008050E045
:100AC0004FF000094F464B46632802D05B2806D002
:100AD00040E0E80601D40120A06001273AE0626905
:100AE0000121019890475E2805D14FF00109626904
:100AF000494601989047216939B900210A46534671
:100B000043F82120491C0829FADBB0B3216969B9EF
:100B1000C11700EBD16253110AEB830122F01F02CF
:100B2000821A01200B68904003430B606269012127
:100B3000019890475D28E8D1B9F1000F09D0002055
:100B4000514651F82020D24341F82020401C08286B
:100B5000F7DB02AB224600976FF001000B99AFF371
:100B6000008000280CDA401C08D1BBF1000F05D032
:100B70004FF0FF300DB0BDE8F08FFFE74046F9E7DA
:100B8000E90701D108F1010806444FF0000B79E6AE
:100B9000CCCCCC0C0029A8BF7047401C490008BF32
:100BA00020F00100704710B4B0FA80FC00FA0CF09D
:100BB00050EA010404BF10BC704749B1CCF12004D5
:100BC00021FA04F411FA0CF118BF01212143084362
:100BD000A3EB0C01CB1D4FEA00614FEA102042BF8E
:100BE000002010BC704700EBC35010440029A4BF84
:100BF00010BC7047401C490008BF20F0010010BC29
:100C0000704710B5141E73F1000408DA401C41F15E
:100C1000000192185B411A4301D120F0010010BD80
:100C20002DE9F04D92469B4611B1B1FA81F202E0F6
:100C3000B0FA80F220329046FFF7F2FD04460F46EC
:100C400040EA0A0041EA0B0153465A46084313D0D2
:100C5000114653EA010019D0C8F140025046FFF78F
:100C6000EEFD05460E46504659464246FFF7D8FD72
:100C7000084305D0012004E020463946BDE8F08D48
:100C80000020054346EAE0762C4337430A98630583
:100C9000E40AA0EB08000022FD0A44EA47540A30A7
:100CA00002D500200146E9E7010510196941DDE997
:100CB000084500196941BDE8F04DA2E77F2801D938
:100CC000002208E0064A02EB5002C007127800D169
:100CD000120902F00F020120904008407047000006
:100CE000A028000870B586B00121042000F0F6FDB0
:100CF0000121202000F00EFE00248DF81640012076
:100D00008DF8170002258DF815508DF814508020AD
:100D100004901C4E04A9304600F0D4FA8DF814500B
:100D20004021049104A9304600F0CCFA08220621A3
:100D3000304600F005FB08220721304600F000FB9A
:100D40004FF416500090ADF80440ADF80640ADF8F1
:100D50000840ADF80C400C20ADF80A000A4C69467A
:100D6000204601F099F900F021F8012240F22551C6
:100D7000204601F076F90121204601F03FF906B046
:100D800070BD0000000802400014014010B5FFF7DC
:100D9000A9FF04490020087048700349A1F8BC006D
:100DA00010BD00005C0000208000002008B54FF45A
:100DB000A06000F05DFD47208DF8000001208DF857
:100DC000010003218DF802108DF80300684600F041
:100DD0001BFD08BD10B50F4C6078012818D0221DEE
:100DE0000DA10E48FFF7FEF9002811DD94ED010A70
:100DF000DFED0B0A0B4920EE200ABCEEC00A10EE14
:100E0000100AA1F8AA000848016881F48051016025
:100E100010BD00005C00002025660000D208002004
:100E20000000C842800000201404024007484178B6
:100E3000012903D1064A1188491C11800021017043
:100E4000012141705A21034801F08DB95C00002056
:100E50003C01002000140140FEE70000F0B587B01F
:100E60000121084600F03AFD0121C80400F044FDCC
:100E700000248DF81A4001268DF81B6002258DF89C
:100E800019508DF8185005951B4F05A9384600F0EC
:100E900019FA8DF81850059605A9384600F012FA8F
:100EA00008220021384600F04BFA0822012138467A
:100EB00000F046FA4FF4E1300190ADF80840ADF88B
:100EC0000A40ADF80C40ADF810400C20ADF80E0013
:100ED0000A4C01A9204601F0DFF800F02BF80122AE
:100EE00040F22551204601F0BCF80121204601F0D6
:100EF00085F807B0F0BD000000000240004C004043
:100F000010B5FFF7ABFF0621084800F06BF8074962
:100F10008871000AC8710020C91E48708870044A90
:100F2000A2F8C4005520087010BD00003B0000204E
:100F30008000002008B54FF4A06000F099FC342038
:100F40008DF8000001208DF8010003218DF80210BA
:100F50008DF80300684600F057FC08BD30B5124D0F
:100F60006878297888421ED3104A107801281AD14F
:100F70005078032817D19078502814D100200C4BBA
:100F800002EB40010C79C97844EA012123F81010E2
:100F9000401C2828F4DBB3F83601401CA3F83601C6
:100FA0000020A870687030BD38000020D2050020F5
:100FB0008000002008488178012903D1074A118860
:100FC000491C1180002141700121817002490822D1
:100FD000C91C034801F0D3B83800002044010020A8
:100FE000004C004030B502464FF6FF70064D07E05A
:100FF00012F8013B4340DBB2040A35F813006040AD
:10100000491EC9B2F4D230BDA026000870B586B022
:101010000121022000F062FC0121880400F06CFC38
:1010200000248DF8164001208DF8170002258DF858
:1010300015508DF81450C00204901C4E04A930467F
:1010400000F040F98DF814506902049104A930466B
:1010500000F038F907220A21304600F071F9072222
:101060000B21304600F06CF94FF416400090ADF8BB
:101070000440ADF80640ADF80840ADF80C400C2037
:10108000ADF80A000A4C6946204601F005F800F068
:1010900021F8012240F22551204600F0E2FF012113
:1010A000204600F0ABFF06B070BD00000004024017
:1010B0000048004010B5FFF7A9FF04490020087060
:1010C00048700349A1F8BE0010BD00006400002074
:1010D0008000002008B54FF4A06000F0C9FB272075
:1010E0008DF8000001208DF8010003218DF8021019
:1010F0008DF80300684600F087FB08BD70B52DED44
:10110000028B82B0304C6078002858D02F4E304D82
:10111000B2EE048AF078442827D104F10C00031FB2
:1011200000901A1F2BA13046FFF75CF803281CD152
:1011300094ED010A20EE080ABCEEC00A10EE100A77
:1011400025F8B00F94ED020A20EE080ABCEEC00AA2
:1011500010EE100A688094ED030A20EE080ABCEE37
:10116000C00A10EE100AA880B03DF078482826D1B9
:1011700015481EA11830031F00901A1F1348FFF7CF
:1011800031F803281BD194ED040A20EE080ABCEEC6
:10119000C00A10EE100A25F8B60F94ED050A20EEED
:1011A000080ABCEEC00A10EE100A688094ED060A28
:1011B00020EE080ABCEEC00A10EE100AA88002B0A9
:1011C000BDEC028B70BD000064000020D20900203D
:1011D000800000202449534450542C2025662C4D77
:1011E0002C25662C422C25662C432A002449534882
:1011F00050522C2025662C25662C25662A000000DE
:1012000005484178002903D1044A1188491C1180FE
:101210000021017041707047640000203E010020F1
:101220007047000070B501460F4DA868427842F043
:101230008002427081700321FFF7D4FEA968C87054
:10124000000A08710024094EA868015D304600F0CC
:1012500085FF4021304600F0DDFE0028F9D0641CF7
:10126000052CF1DB70BD00002400002000100140BF
:101270007CB50121022000F031FB4FF48054009432
:1012800000208DF8060002208DF8070001218DF85E
:1012900004108DF805000A4E6946304600F012F839
:1012A000650000956946304600F00CF8214630464E
:1012B00000F056F82946304600F052F87CBD000098
:1012C000000402402DE9F041002201274FF0030CF9
:1012D00007FA02F50B682B40AB422CD1066853008D
:1012E0000CFA03F4A64306600E79D0F800809E4005
:1012F00046EA080606600E79012E01D0022E12D1B0
:101300008668A64386604E79D0F808809E4046EAFB
:10131000080686604668AE43466045688E7996400A
:10132000B6B235434560C568A543C560CC799C40DD
:10133000C3681C43C460521C102AC9D3BDE8F081A5
:1013400010B54B07DB0E9A40C90800EB8100016A1B
:101350000F249C40A1430162016A1143016210BD48
:10136000018370470A2806D204490A5C1AB1002298
:101370000A5401207047002070470000C805002073
:10138000FEE710B545F2555000F032F8022000F0AB
:1013900023F840F6FF7000F025F800F015F8BDE8DE
:1013A000104000F001B8000002494CF6CC40086043
:1013B000704700000030004002494AF6AA20086049
:1013C000704700000030004002494AF6AA20086039
:1013D000704700000030004001494860704700003D
:1013E0000030004001498860704700000030004034
:1013F00001490860704700000030004070B586B0B9
:101400000121084600F06AFA0121102000F082FA5A
:1014100000248DF8164001208DF8170002258DF864
:1014200015508DF81450400204901C4E04A930460B
:10143000FFF748FF8DF814506902049104A9304663
:10144000FFF740FF07220A213046FFF779FF072206
:1014500009213046FFF774FF4FF4E1300090ADF8FA
:101460000440ADF80640ADF80840ADF80C400C2043
:10147000ADF80A000A4C6946204600F00DFE00F067
:1014800011F8012240F22551204600F0EAFD012129
:10149000204600F0B3FD06B070BD00000000024021
:1014A0000010014008B54FF4A06000F0E1F92520DC
:1014B0008DF8000001208DF801008DF802008DF8F4
:1014C0000300684600F0A0F908BDFEE70248C188A5
:1014D000491CC18070470000240000202DE9F04322
:1014E000884CA0684178002904D0CA1F082A01D37B
:1014F000102902D90120BDE8F0832179A1F1080269
:10150000F32A01D30320F6E7891EC9B2FFF76AFD6B
:101510002179A268114411F8023D497843EA01217A
:10152000884201D00320E6E7D078917840EA012094
:101530005179137941EA03215378DFF8CCC10126B0
:10154000012B01D0022B3CD1B1F5707F01D90320D2
:10155000D1E74318C82B01D30220CCE7921C4B07DC
:1015600007D0CB085B1C02F8013B0546002300278F
:1015700021E0CB08F7E73CF81580B8F1000F08D060
:1015800092F8008006FA03F948EA090882F8008018
:1015900007E092F8008006FA03F928EA090882F8C1
:1015A00000805B1CDBB2082B01D30023521C6D1C96
:1015B000ADB27F1CBFB28F42DDD3A2689278521DBC
:1015C0006271A36808275A78052A10D1C82801D368
:1015D000022090E7B1F57F4F02D021B103208AE7C6
:1015E0002CF8106002E000222CF8102067715A7865
:1015F0000F2A23D14218C82A01D302207BE70022F8
:10160000DB1D0CEB400C002515E093F8008006FA7A
:1016100002F918EA090F02D04FF0010801E04FF07B
:1016200000082CF8028B521CD2B2082A01D30022E7
:101630005B1C6D1CADB28D42E7D36771A368DFF808
:10164000CCC05A78032A01D0042A24D17D2901D99B
:10165000032050E700EB0108B8F1C80F01D30220C6
:1016600049E70CEB40024D009D70DB1C05460CE089
:10167000B2F800904FEA192903F8019B92F8009004
:1016800003F8019B921C6D1CADB2A845F0D8A2686E
:101690009278521D6271A2685378062B0CD1C8282B
:1016A00001D3022027E7A0F16403142B00D2667057
:1016B0002CF81010267067715378102B20D100EB96
:1016C0000108B8F1C80F01D3022014E7D21D0CEBBA
:1016D000400103460CE012F8015B2D020D8012F868
:1016E00001CB4CEA050CA1F800C0891C5B1C9BB225
:1016F0009845F0D826706438142800D26670677157
:101700000020F8E6240000201002002080000020C5
:1017100010B59AB01C4A1B48906000F58070D060EC
:10172000A0F584640121A4F84011B4F942016028B5
:101730000BD0C02809D0B0F5C07F06D04FF490631D
:10174000984202D0A4F842311170481C02D1A4F88A
:1017500040111170FFF7A6FE04F5A07464216088A3
:1017600010FB01F0FFF74AFEB4F90230B4F9002093
:1017700006A101A800F05AFE01A90E4800F016FDCE
:101780001AB010BDA0030020240000202050726F6A
:101790006772616D20496E697469616C697A652E42
:1017A0002E2E204164723A25642C20426175643AE1
:1017B000256400000010014070B5104CE088052839
:1017C0001AD9A068E168A160E060A07820710025C6
:1017D000A5700122E27008280DD308780849B1F9F4
:1017E0004011884207D1FFF779FE10B1FFF71AFDCB
:1017F00001E000F047F8E58070BD00002400002003
:10180000800000207047000030B50F23C27801250A
:101810000178002A1FD0154A126802F4E062C2F56E
:10182000E062C2F30722C2F10404D3404278A2402E
:1018300084781C401443220101F1E02181F8002446
:10184000007800F01F018D404009800000F1E02089
:10185000C0F8005130BD01F01F00854048098000EC
:1018600000F1E020C0F8805130BD00000CED00E038
:101870000249084302490860704700000000FA0569
:101880000CED00E070B5124D6879801EC1B2A868F9
:10189000FFF7A8FB6A79A9680A4402F8020C6A7982
:1018A000000A114401F8010C00240A4E0BE0A8685C
:1018B000015D304600F052FC4021304600F0AAFBAA
:1018C0000028F9D0641C68798442F0DB70BD000008
:1018D000240000200010014070470000054A002944
:1018E00003D0116801431160704711688143116092
:1018F0007047000030380240054A002903D01168C3
:101900000143116070471168814311607047000006
:1019100040380240054A002903D011680143116094
:1019200070471168814311607047000044380240DD
:1019300070B5244B196801F00C01234C00291ED00E
:10194000224E04291DD008291DD00460196801F019
:10195000F00109091E4A545C0168E14041601C68BD
:1019600004F4E054A40A145D21FA04F484601B68B2
:1019700003F460435B0BD25CD140C16070BD046076
:10198000E4E70660E2E70F4A121F1168C1F38055D1
:10199000116801F03F0135B1B6FBF1F11468C4F3F1
:1019A0008814614305E0B4FBF1F11468C4F38814B2
:1019B00061431268C2F30142521C5200B1FBF2F1C2
:1019C0000160C3E7083802400024F40040787D013C
:1019D0001400002070B586B001211020FFF77EFFB3
:1019E00001218807FFF788FF00248DF816400120A9
:1019F0008DF8170002258DF815508DF8145000024F
:101A000004901C4E04A93046FFF75CFC8DF814507E
:101A10008021049104A93046FFF754FC08220721D5
:101A20003046FFF78DFC082211463046FFF788FC50
:101A30004FF416400090ADF80440ADF80640ADF804
:101A40000840ADF80C400C20ADF80A000A4C69467D
:101A5000204600F021FB00F02BF8012240F2255136
:101A6000204600F0FEFA0121204600F0C7FA06B039
:101A700070BD0000001002400078004010B5FFF774
:101A8000A9FF06210848FFF7ADFA07498871000A47
:101A9000C8710020C91E48708870044AA2F8C000AE
:101AA0000720087010BD00005200002080000020B8
:101AB00008B54FF4A060FFF7DBFE52208DF8000060
:101AC00001208DF8010003218DF802108DF803002C
:101AD0006846FFF799FE08BDF0B5264E707831785C
:101AE000884245D3244B1878022841D158780328DE
:101AF0003ED1987802283BD1204CB4F8A020A4F81D
:101B0000A220002003EB40010D79C97845EA0121AC
:101B1000A4F8A010401C0128F4DBA034A088E080C9
:101B20002088811AA180A03C4FF480634FF4406567
:101B3000984209D2AA4207D901F5805724F8A47F18
:101B4000A7887F1CA780A43CA84209D99A4207D243
:101B5000A1F5805124F8A41FA088401EA080A43CB9
:101B6000B4F83201401CA4F832010020B07070704B
:101B7000F0BD00004F000020D207002080000020B0
:101B800008488178012903D1074A1188491C11802E
:101B9000002141700121817002490822C91C0348BB
:101BA00000F0EDBA4F000020400100200078004016
:101BB000704700001CB50021019100912E4A106869
:101BC00040F4803010604FF4A043106800F40030FF
:101BD00000900198401C0190009810B9019898421B
:101BE000F3D11068800302D50120009000E000913D
:101BF000009801283FD120484030016841F08051D1
:101C000001601E49086840F4404008601A480830E6
:101C100003680360036843F400430360036843F40C
:101C2000A0530360041F164B2360136843F08073B6
:101C3000136013689B01FCD50A6842F480320A6085
:101C40004A68D203FCD50A6842F400320A604A6846
:101C50009203FCD50B4A40F205711160016821F036
:101C600003010160016841F0020101600168C1F3F4
:101C700081010229FAD11CBD0038024000700040E9
:101C8000195A4007003C02400A2805D2034A22F8AC
:101C90001010143222F8101070470000A005002028
:101CA00070B5FFF713FC1149086810B90868401EA9
:101CB000086000200E4C0123A4F11401A1F11405C9
:101CC00031F8102052B131F81020012A00D12354EC
:101CD00031F81020521E21F8102003E035F81020B2
:101CE00021F81020401C0A28EADB70BD34000020D7
:101CF000C805002010B5164842F210710068B0FB0C
:101D0000F1F0401E00214FF0E022B0F1807F01D3BE
:101D1000012007E050610F4BF020187091610720FF
:101D20001061002000B1FEE7106960F00100106151
:101D30000020094A02F1140302F1280422F81010CD
:101D400023F810102154401C0A28F7DB10BD0000B6
:101D50000000002023ED00E0A005002010B512488F
:101D6000016841F4700101601048016841F001010F
:101D700001600E4A00210832116002680C4B1A40C3
:101D80000260031D0B4A1A60026822F4802202607E
:101D900006480C300160FFF70DFF03494FF000606B
:101DA0008039086010BD000088ED00E00038024076
:101DB000FFFFF6FE1030002470B5104C40F22551A4
:101DC000204600F02EF940B1204600F0C3F90C4B3C
:101DD00059784A1C5A700B4A505440F227752946CC
:101DE000204600F01EF9002806D029462046BDE80E
:101DF0007040002200F035B970BD0000004C00407A
:101E000038000020D205002070B5104C40F225515A
:101E1000204600F006F940B1204600F09BF90C4B3B
:101E200059784A1C5A700B4A505440F2277529467B
:101E3000204600F0F6F8002806D029462046BDE8E6
:101E40007040002200F00DB970BD00000078004025
:101E50004F000020D207002070B5164C40F22551EB
:101E6000204600F0DEF8A8B1204600F073F9C1B2B8
:101E7000114B0025D87860B11048B0F94001884274
:101E800002D0987800B9DD709A78501C9870D868A4
:101E90008154DD8040F227752946204600F0C1F8C4
:101EA000002806D029462046BDE87040002200F0F8
:101EB000D8B870BD00100140240000208000002030
:101EC00070B5104C40F22551204600F0AAF840B100
:101ED000204600F03FF90C4B99784A1C9A700B4A47
:101EE000505440F227752946204600F09AF8002801
:101EF00006D029462046BDE87040002200F0B1B867
:101F000070BD00000044004043000020D2060020C5
:101F100070B51D4D40F22551284600F082F818B3E7
:101F2000284600F017F9C1B201261848184C2A2992
:101F30000BD12278142A08D9637833B9531CDBB249
:101F4000237081540022C2546670227822B16378D3
:101F500013B9531C23708154242905D122781AB94E
:101F600062780AB92670017040F22774214628462B
:101F700000F057F8002806D021462846BDE87040FA
:101F8000002200F06EB870BD00480040D209002069
:101F90006400002070B5164D40F22551284600F02F
:101FA00040F8A0B1284600F0D5F8C2B2114C6078D4
:101FB00001280CD12378104E581CC1B22170F25464
:101FC0000D2A04D100204A1C22707054607040F227
:101FD00027742146284600F024F8002806D0214620
:101FE0002846BDE87040002200F03BB870BD0000FC
:101FF000001401405C000020D2080020002904D019
:10200000818941F4005181817047818921F4005117
:10201000818170470246002012880A4200D00120C8
:10202000704770B5002440F66A12C1F3421301F004
:102030001F05012606FA05F2012B0CD0022B0DD04C
:10204000838A1340090A8E40008830400BB100B1EA
:102050000124204670BD83891340F3E7038A1340AF
:10206000F0E710B540F66A13C1F3421301F01F0404
:102070000121A140012B07D0022B07D014303AB127
:1020800002680A43026010BD0C30F8E71030F6E732
:1020900002688A43026010BD7FB504460D46208A5F
:1020A00020F44051E88808432082A08941F20C6165
:1020B0008843A9882A8911436A8902431143A1816F
:1020C000A08A20F44071A8890843A0826846FFF7DF
:1020D0002FFC1E48844202D01D48844201D103983F
:1020E00000E00298A189090408D500EBC00101EBCA
:1020F000001029684900B0FBF1F007E000EBC001D7
:1021000001EB001029688900B0FBF1F06422B0FBFC
:10211000F2F109010B096FF018056B4300EB830026
:10212000A3891D044FF0320307D503EBC000B0FBB9
:10213000F2F000F00700084306E003EB0010B0FBEC
:10214000F2F000F00F00084320817FBD0010014035
:10215000001401408088C0F308007047C1F30801F3
:1021600081807047FEE710B504462046FFF7F6FF72
:1021700080212046FFF74EFF0028F9D010BD2DE941
:10218000F04107460D46164600240BE015F8011BEA
:102190003846FFF7E3FF80213846FFF73BFF002872
:1021A000F9D0641CB442F1DBBDE8F08170B506469D
:1021B0000D4600243046295DFFF7D5FF641C285DDD
:1021C0000028F7D140213046FFF724FF0028F9D03E
:1021D00070BD000070B586B001210846FFF77EFB98
:1021E00001214804FFF788FB00248DF816400120E8
:1021F0008DF8170002258DF815508DF81450082021
:1022000004901C4E04A93046FFF75CF88DF814507A
:102210000421049104A93046FFF754F80722022153
:102220003046FFF78DF8072203213046FFF788F884
:102230004FF4E1300090ADF80440ADF80640ADF841
:102240000840ADF80C400C20ADF80A000A4C694675
:102250002046FFF721FF00F029F8012240F2255126
:102260002046FFF7FEFE01212046FFF7C7FE06B01D
:1022700070BD0000000002400044004010B5FFF7B0
:10228000A9FF06210748FEF7ADFE06498871000A3E
:10229000C8710020091F8870C8700349A1F8C200E6
:1022A00010BD0000470000208000002008B54FF45A
:1022B000A060FFF7DDFA26208DF8000000208DF8E1
:1022C000010001208DF802008DF803006846FFF739
:1022D0009BFA08BDF0B51A4EB078317888422ED3FB
:1022E000184AF078002714785578E8B1012C26D1E7
:1022F000032D24D19078502821D10020124B02EBDD
:10230000400191F804C0C9784CEA012C00F1280181
:1023100023F811C0401C2828F1DBB3F83401401C1D
:10232000A3F83401F770B7707078002807D0012C3B
:1023300005D1102D03D1777004480770B770F0BD38
:1023400043000020D206002080000020250000204D
:10235000F0B5C1B0224CE07801283FD06078214B25
:10236000012804D1B3F8C200401CA3F8C200012523
:102370008DF8045010208DF8050003208DF806001C
:10238000E8208DF8070000268DF8086014208DF8ED
:10239000090028208DF80A00002001AF00F1640137
:1023A00007EB400233F811104FEA112C82F807C0F6
:1023B0001172401C1428F1DB2F2101A8FEF712FE38
:1023C0008DF83300000A8DF83400312201A9064847
:1023D000FFF7D5FE07202070A670657041B0F0BDF4
:1023E00043000020800000200044004010B50C4C49
:1023F0006078012812D0E078012803D109480188CB
:10240000491C01800020A0700120E07004490822CE
:10241000091D0548FFF7B3FE5520207010BD0000D0
:102420004300002042010020004400400FB4084B4C
:1024300010B504A902AA039800F022F8044602A9E4
:10244000002000F0C7F8204610BC5DF814FB000027
:10245000D525000802E008C8121F08C1002AFAD1D9
:1024600070477047002001E001C1121F002AFBD114
:10247000704730380A2801D2012070470020704789
:102480002DE9FF4F89B09B460446002506E025282C
:102490000BD05A460B999047641C6D1C207800287D
:1024A000F5D10DB02846BDE8F08F0027B8460122CF
:1024B000474900E0074314F8013F203B02FA03F0CC
:1024C0000842F7D120782E2819D114F8010F47F0CF
:1024D00004072A280ED06FF02F022078A0F13001D7
:1024E00009290CD808EB880102EB410100EB010837
:1024F000641CF2E70A98641C50F8048B0A90207858
:102500000028CED0642808D0692806D075281ED0AF
:102510005A460B9990476D1C58E00A994FF00A09EA
:1025200001C90A91002802DA40422D2102E0390552
:1025300004D52B218DF82010012103E0F90704D0E8
:102540002021F7E78A4608AE0DE00021FAE70A9954
:102550004FF00A0901C90A91F7E74946FDF7FAFF6A
:10256000303106F8011D0028F7D1ADEB060000F16F
:102570002009780701D44FF00108C84502DDA8EB17
:10258000090000E000208046002706E008A85A461F
:10259000C05D0B9990476D1C7F1C5745F6DB04E02E
:1025A00030205A460B9990476D1CB8F10001A8F1F4
:1025B0000108F5DC05E016F8010B5A460B99904727
:1025C0006D1CB9F10001A9F10109F4DC641C65E797
:1025D000092801000A68531C0B6010707047000046
:1025E000FFF788FBFEF744FEFFF792F8FEF788FC42
:1025F000FFF744FEFFF742FAFEF75CFDFEF7C6FB6D
:102600004FF4FA710020FFF73FFB4FF47A7101207D
:10261000FFF73AFBC8210220FFF736FB64210320B5
:10262000FFF732FBFEF7ADFE1B4CFFF7C5F8FEF7D8
:1026300095FCFFF74FFEFFF74FFAFEF75FFDFEF741
:10264000C9FB0020FEF78EFE30B1FEF7B5FE134841
:10265000016881F4005101600220FEF783FE30B171
:102660002078012803D1FFF773FEFFF789FA0120D4
:10267000FEF778FE38B1FEF79DFCFFF781FAFEF712
:10268000BFFDFEF7D3FB0320FEF76CFE0028CCD085
:10269000FFF7ACFEC9E7000025000020140402404B
:1026A0000000C1C081C1400101C3C003800241C21A
:1026B00001C6C006800741C70005C1C581C44004EA
:1026C00001CCC00C800D41CD000FC1CF81CE400E9A
:1026D000000AC1CA81CB400B01C9C009800841C8AA
:1026E00001D8C018801941D9001BC1DB81DA401A1A
:1026F000001EC1DE81DF401F01DDC01D801C41DCEA
:102700000014C1D481D5401501D7C017801641D619
:1027100001D2C012801341D30011C1D181D0401029
:1027200001F0C030803141F10033C1F381F2403219
:102730000036C1F681F7403701F5C035803441F4E9
:10274000003CC1FC81FD403D01FFC03F803E41FE99
:1027500001FAC03A803B41FB0039C1F981F84038A9
:102760000028C1E881E9402901EBC02B802A41EA19
:1027700001EEC02E802F41EF002DC1ED81EC402CE9
:1027800001E4C024802541E50027C1E781E6402619
:102790000022C1E281E3402301E1C021802041E029
:1027A00001A0C060806141A10063C1A381A2406219
:1027B0000066C1A681A7406701A5C065806441A4E9
:1027C000006CC1AC81AD406D01AFC06F806E41AE99
:1027D00001AAC06A806B41AB0069C1A981A84068A9
:1027E0000078C1B881B9407901BBC07B807A41BA19
:1027F00001BEC07E807F41BF007DC1BD81BC407CE9
:1028000001B4C074807541B50077C1B781B6407618
:102810000072C1B281B3407301B1C071807041B028
:102820000050C190819140510193C0538052419218
:102830000196C056805741970055C19581944054E8
:10284000019CC05C805D419D005FC19F819E405E98
:10285000005AC19A819B405B0199C05980584198A8
:102860000188C04880494189004BC18B818A404A18
:10287000004EC18E818F404F018DC04D804C418CE8
:102880000044C184818540450187C0478046418618
:102890000182C042804341830041C1818180404028
:1028A000DDDDDDDDDCBBBBDDDDDDDDDDDDDDDDDD9D
:1028B00098888888888888887777777777888888DD
:1028C0008555555666666666666666666668888875
:1028D0008333333222222222222222222228888D6E
:1028E0000029000800000020800000005424000897
:1028F0008029000880000020580E00006424000891
:102900000095BA0A00000000000000000102030464
:102910000607080900000000010203040102030485
:102920000607080900000000000000000000000089
:10293000000000000000000055000001030000003E
:102940002800005500000001030000002800005589
:102950000000020300000001000000000000000071
:102960000000000000000000000000000000000067
:102970000000000000000000000000000000000057
:04000005080001AD41
:00000001FF
