:020000040800F2
:10000000400F0020C1010008D90A0008510600086D
:100010009B07000835020008751700080000000063
:100020000000000000000000000000007511000842
:100030006102000800000000AD0B0008DD1200089E
:10004000DB010008DB010008DB010008DB01000820
:10005000DB010008DB010008DB010008DB01000810
:10006000DB010008DB010008DB010008DB01000800
:10007000DB010008DB010008DB010008DB010008F0
:10008000DB010008DB010008DB010008DB010008E0
:10009000DB010008DB010008DB010008DB010008D0
:1000A000DB010008DB010008DB010008DB010008C0
:1000B000DB010008DB010008DB010008DB010008B0
:1000C000DB010008DB010008DB010008DB010008A0
:1000D000DB0100089D1400080515000855150008EF
:1000E000DB010008DB010008DB010008DB01000880
:1000F000DB010008DB010008DB010008DB01000870
:10010000DB010008DB010008DB010008DB0100085F
:10011000FD130008DB010008DB010008DB0100081B
:10012000DB010008DB010008DB010008DB0100083F
:10013000DB010008DB010008DB010008DB0100082F
:10014000DB010008DB010008DB010008DB0100081F
:10015000DB010008DB010008DB010008A515000831
:10016000DB010008DB010008DB010008DB010008FF
:10017000DB010008DB010008DB010008DB010008EF
:10018000DB010008DB0100084D140008DB0100085A
:10019000DB010008DB010008DB010008DB010008CF
:1001A000DB010008DB010008DB010008DFF80CD0F0
:1001B00000F02EF8004800478D190008400F00207D
:1001C0000648804706480047FEE7FEE7FEE7FEE7F1
:1001D000FEE7FEE7FEE7FEE7FEE7FEE7A113000805
:1001E000AD01000830B50B46014600202022012455
:1001F00009E021FA02F59D4205D303FA02F5491BF5
:1002000004FA02F52844151EA2F10102F1DC30BD0A
:10021000064C074D06E0E06840F0010394E8070053
:1002200098471034AC42F6D3FFF7C4FF401C0008D7
:10023000601C0008FEE7000030B502464FF6FF7074
:10024000064D07E012F8013B4340DBB2040A35F8E3
:1002500013006040491EC9B2F4D230BD401A0008F4
:100260007047000070B501460F4DA868427842F013
:100270008002427081700321FFF7DEFFA968C87019
:10028000000A08710024094EA868015D304601F09B
:100290006DFA4021304601F0C5F90028F9D0641C00
:1002A000052CF1DB70BD000024000020001001408F
:1002B00001490860704700000C3C024070B50646DA
:1002C0000025002905D0012927D0022928D04FF484
:1002D000407500F081F809281ED1134C206820F4E5
:1002E00040702060206828432060206820F0F800DB
:1002F0002060206846F0020108432060206840F436
:100300008030206000F068F8216821F0020121604F
:10031000216821F0F801216070BD4FF48075D8E7A5
:100320004FF40075D5E70000103C024009200D494C
:100330000A68D20301D5012070470A68D20601D5A8
:10034000062070470A68D20501D5022070470A6866
:1003500012F0E00F01D00720704709688907FBD52C
:10036000082070470C3C02400248016841F00041FF
:1003700001607047103C024070B505460E4600F023
:100380002BF8092813D10A4C206820F44070206013
:10039000206840F480702060206840F001002060F8
:1003A0002E8000F019F8216821F00101216070BD54
:1003B000103C024005480068002805DA034804495B
:1003C0000C3801600349016070470000103C024096
:1003D00023016745AB89EFCD08B509200090FFF7F1
:1003E000A5FF009002E0FFF7A1FF00909DF800003C
:1003F0000128F8D09DF8000008BD0000014600204B
:10040000A1F100624FF480439A4204D3204808448B
:10041000984201D2082070471E480844984201D2F1
:10042000102070471C480844984201D21820704799
:100430001A480844B0F5803F01D220207047184880
:100440004FF400320844904201D2282070471548EA
:100450000844904201D2302070471348084490422B
:1004600001D23820704711480844904201D2402000
:1004700070470F480844904201D2482070470D4809
:100480000844904201D25020704758207047000025
:1004900000C0FFF70080FFF70040FFF70000FFF704
:1004A0000000FEF70000FCF70000FAF70000F8F784
:1004B0000000F6F70000F4F710B5002305E030F86F
:1004C000024B22F813405B1CDBB28B42F7D310BD0A
:1004D0002DE9F04105460E461746FFF76BFFF32066
:1004E000FFF7E6FE2846FFF789FF044605EB4600C6
:1004F000FFF784FF804608E002212046FFF7DEFE7A
:10050000092800D0FEE70834A4B24445F4D90024F9
:100510000AE037F814102846FFF72EFF092800D00C
:10052000FEE7AD1C641CA4B2B442F2D3BDE8F041B6
:10053000FFF71ABF7CB50121022000F039FB4FF410
:100540008054009400208DF8060002208DF80700EA
:1005500001218DF804108DF805000A4E69463046D9
:1005600000F012F8650000956946304600F00CF87E
:100570002146304600F056F82946304600F052F841
:100580007CBD0000000402402DE9F041002201275B
:100590004FF0030C07FA02F50B682B40AB422CD14D
:1005A000066853000CFA03F4A64306600E79D0F8EF
:1005B00000809E4046EA080606600E79012E01D0B2
:1005C000022E12D18668A64386604E79D0F8088044
:1005D0009E4046EA080686604668AE434660456827
:1005E0008E799640B6B235434560C568A543C5606F
:1005F000CC799C40C3681C43C460521C102AC9D3E8
:10060000BDE8F08110B54B07DB0E9A40C90800EB3E
:100610008100016A0F249C40A1430162016A1143D9
:10062000016210BD018370470148406870470000B7
:10063000340000200A2806D204490A5C1AB10022BC
:100640000A5401207047002070470000C8050020B0
:10065000FEE710B545F2555000F032F8022000F0E8
:1006600023F840F6FF7000F025F800F015F8BDE81B
:10067000104000F001B8000002494CF6CC40086080
:10068000704700000030004002494AF6AA20086086
:10069000704700000030004002494AF6AA20086076
:1006A000704700000030004001494860704700007A
:1006B0000030004001498860704700000030004071
:1006C00001490860704700000030004070B586B0F6
:1006D0000121084600F06CFA0121102000F084FA94
:1006E00000248DF8164001208DF8170002258DF8A2
:1006F00015508DF81450400204901C4E04A9304649
:10070000FFF742FF8DF814506902049104A93046A6
:10071000FFF73AFF07220A213046FFF773FF07224F
:1007200009213046FFF76EFF4FF4E1300090ADF83D
:100730000440ADF80640ADF80840ADF80C400C2080
:10074000ADF80A000A4C6946204600F0ADFF00F003
:1007500011F8012240F22551204600F08AFF0121C4
:10076000204600F053FF06B070BD000000000240BC
:100770000010014008B54FF4A06000F0E3F9252017
:100780008DF8000001208DF801008DF802008DF831
:100790000300684600F0A2F908BDFEE70248C188E0
:1007A000491CC18070470000240000202DE9F0435F
:1007B000884CA0684178002904D0CA1F082A01D3B8
:1007C000102902D90120BDE8F0832179A1F10802A6
:1007D000F32A01D30320F6E7891EC9B2FFF72CFDE7
:1007E0002179A268114411F8023D497843EA0121B8
:1007F000884201D00320E6E7D078917840EA0120D2
:100800005179137941EA03215378DFF8CCC10125EE
:10081000012B01D0022B3CD1B1F5707F01D903200F
:10082000D1E74318C82B01D30220CCE7921C4B0719
:1008300007D0CB085B1C02F8013B064600230027CB
:1008400021E0CB08F7E73CF81680B8F1000F08D09C
:1008500092F8008005FA03F948EA090882F8008056
:1008600007E092F8008005FA03F928EA090882F8FF
:1008700000805B1CDBB2082B01D30023521C761CCA
:10088000B6B27F1CBFB28F42DDD3A2689278521DF0
:100890006271A36808275A78052A10D1C82801D3A5
:1008A000022090E7B1F57F4F02D021B103208AE703
:1008B0002CF8105002E000222CF8102067715A78B2
:1008C0000F2A23D14218C82A01D302207BE7002235
:1008D000DB1D0CEB400C002615E093F8008005FAB8
:1008E00002F918EA090F02D04FF0010801E04FF0B9
:1008F00000082CF8028B521CD2B2082A01D3002225
:100900005B1C761CB6B28E42E7D36771A368DFF832
:10091000CCC05A78032A01D0042A24D17D2901D9D8
:10092000032050E700EB0108B8F1C80F01D3022003
:1009300049E70CEB40024E009E70DB1C06460CE0C3
:10094000B2F800904FEA192903F8019B92F8009041
:1009500003F8019B921C761CB6B2B045F0D8A26891
:100960009278521D6271A2685378062B0CD1C82868
:1009700001D3022027E72CF810102570A0F16403A2
:10098000142B00D8657067715378102B20D100EBC1
:100990000108B8F1C80F01D3022014E7D21D0CEBF7
:1009A000400103460CE012F8016B36020E8012F88B
:1009B00001CB4CEA060CA1F800C0891C5B1C9BB261
:1009C0009845F0D825706438142800D26570677196
:1009D0000020F8E624000020100200208000002003
:1009E00010B59AB01D4A1C48906000F58070D06028
:1009F000A0F584640121A4F8C810B4F9CA006028E5
:100A00000BD0C02809D0B0F5C07F06D04FF490635A
:100A1000984202D0A4F8CA301170012901DDFF29E3
:100A200002DBA4F8C8101170FFF7A4FEC8346421DB
:100A3000608810FB01F0FFF749FEB4F90230B4F909
:100A4000002007A101A800F0CDFE01A90E4800F08A
:100A5000B5FE1AB010BD0000A00300202400002045
:100A60002050726F6772616D20496E697469616CA4
:100A7000697A652E2E2E204164723A25642C20421C
:100A80006175643A256400000010014070B5104C97
:100A9000E08805281AD9A068E168A160E060A07824
:100AA00020710025A5700122E27008280DD3087876
:100AB0000849B1F9C810884207D1FFF777FE10B195
:100AC000FFF7D0FB01E000F047F8E58070BD0000C3
:100AD00024000020800000207047000030B50F2364
:100AE000C27801250178002A1FD0154A126802F445
:100AF000E062C2F5E062C2F30722C2F10404D3400F
:100B00004278A24084781C401443220101F1E02184
:100B100081F80024007800F01F018D40400980001A
:100B200000F1E020C0F8005130BD01F01F00854009
:100B30004809800000F1E020C0F8805130BD00007D
:100B40000CED00E0024908430249086070470000CC
:100B50000000FA050CED00E070B5124D6879801EBA
:100B6000C1B2A868FFF768FB6A79A9680A4402F86D
:100B7000020C6A79000A114401F8010C00240A4EA3
:100B80000BE0A868015D304600F0F0FD40213046E2
:100B900000F048FD0028F9D0641C68798442F0DB3D
:100BA00070BD0000240000200010014070470000CC
:100BB000054A002903D0116801431160704711688C
:100BC000814311607047000030380240054A002917
:100BD00003D01168014311607047116881431160AF
:100BE0007047000040380240054A002903D01168D0
:100BF0000143116070471168814311607047000024
:100C00004438024070B5244B196801F00C01234CA4
:100C100000291ED0224E04291DD008291DD00460B1
:100C2000196801F0F00109091E4A545C0168E140AD
:100C300041601C6804F4E054A40A145D21FA04F431
:100C400084601B6803F460435B0BD25CD140C160DD
:100C500070BD0460E4E70660E2E70F4A121F116806
:100C6000C1F38055116801F03F0135B1B6FBF1F1D8
:100C70001468C4F38814614305E0B4FBF1F114680F
:100C8000C4F3881461431268C2F30142521C52003B
:100C9000B1FBF2F10160C3E7083802400024F40020
:100CA00040787D0114000020F0B587B00646012190
:100CB0000220FFF77DFF01218804FFF787FF002452
:100CC0008DF81A4001208DF81B0002258DF819506F
:100CD0008DF81850C10205911B4F05A93846FFF742
:100CE00053FC8DF818506802059005A93846FFF7A7
:100CF0004BFC07220A213846FFF784FC07220B2110
:100D00003846FFF77FFC642046430196ADF8084063
:100D1000ADF80A40ADF80C40ADF810400C20ADF82D
:100D20000E000A4C01A9204600F0BEFC00F03EF87F
:100D3000012240F22551204600F09BFC0121204673
:100D400000F064FC07B0F0BD000402400048004021
:100D500070B5134DB5F8D60060280AD0C02808D069
:100D60004FF4C071884204D0B0F5906F01D0A5F85F
:100D7000D610B5F8D600FFF797FF0A4C0020607038
:100D8000A070A88495F8DC00052101EB40002070DC
:100D9000FFF74AFC6060BDE87040034800F08FBA7E
:100DA0008000002060000020D409002008B54FF426
:100DB000A060FFF7C7FE27208DF8000001208DF806
:100DC000010003218DF802108DF803006846FFF73B
:100DD00085FE08BD2DE9F0412B4D687829788842C1
:100DE0004FD32A4E2A4C3078B4F8D810884248D1D4
:100DF0007078032845D1B078B4F8DC10B0EB410F1F
:100E00003FD1FFF711FCA18AA183E28AE283228B02
:100E100022843279F37842EA0322A282AB88C31A91
:100E20009BB2E3826860501A20834FF480664FF4CF
:100E30004067B24205D2B94203D900F5805CA4F8FC
:100E400018C0BA4204D9B14202D2A0F58050208322
:100E500033B1208B4FF47A714843B0FBF3F06083D9
:100E6000B4F91620B4F918100A4800F008FA094835
:100E700000F0F8F96084E08C401CE0840020A87049
:100E80006870BDE8F081000060000020D4080020F8
:100E900080000020D409002070B5184818498278D5
:100EA000012A02D18A8C521C8A84002242700122BB
:100EB0008270144D287850F0010016D00F4C11F8B4
:100EC000D80F083420704888020AA270E070888821
:100ED000010A2171607106212046FFF7ADF9A0716A
:100EE000000AE0712878401C2870BDE87040034972
:100EF00008220831044800F04ABC000060000020CD
:100F0000800000202500002000480040F0B587B098
:100F1000064601211020FFF74BFE01218807FFF74D
:100F200055FE00248DF81A4001208DF81B00022583
:100F30008DF819508DF81850010205911B4F05A925
:100F40003846FFF721FB8DF818508020059005A941
:100F50003846FFF719FB082207213846FFF752FBF6
:100F6000082211463846FFF74DFB642046430196A0
:100F7000ADF80840ADF80A40ADF80C40ADF81040AF
:100F80000C20ADF80E000A4C01A9204600F08CFBA5
:100F900000F03EF8012240F22551204600F069FBA6
:100FA0000121204600F032FB07B0F0BD00100240E6
:100FB0000078004070B5134DB5F8DE0060280AD007
:100FC000C02808D04FF4C071884204D0B0F5906FAB
:100FD00001D0A5F8DE10B5F8DE00FFF797FF0A4C48
:100FE00000206070A070288795F8E400052101EBCF
:100FF00040002070FFF718FB6060BDE870400348B8
:1010000000F05DB98000002070000020080B002077
:1010100008B54FF4A060FFF795FD52208DF8000051
:1010200001208DF8010003218DF802108DF80300D6
:101030006846FFF753FD08BD2DE9F0412C4D687857
:101040002978884251D32B4E2B4C3078B4F8E010DD
:1010500088424AD17078032847D1B078B4F8E410B8
:10106000B0EB410F41D1FFF7DFFA218D2186628D70
:101070006286A28DA286E28DE2863279F37842EA18
:1010800003222285AB88C31A9BB263856860501A1D
:10109000A0854FF480664FF44067B24205D2B94252
:1010A00003D900F5805CA4F82CC0BA4204D9B1423F
:1010B00002D2A0F58050A08533B1A08D4FF47A7193
:1010C0004843B0FBF3F0E085B4F92A20B4F92C10C2
:1010D0000A4800F0D4F8094800F0C4F8E086608FB0
:1010E000401C60870020A8706870BDE8F081000097
:1010F00070000020080A002080000020080B00205B
:1011000070B5184818498278012A02D10A8F521CFA
:101110000A870022427001228270144D287850F014
:10112000010016D00F4C11F8E00F083420704888E9
:10113000020AA270E0708888010A2171607106219C
:101140002046FFF779F8A071000AE0712878401C6A
:101150002870BDE87040034908220831044800F0B7
:1011600016BB000070000020800000202500002039
:1011700000780040704700001CB5002101910091EB
:101180002E4A106840F4803010604FF4A04310687D
:1011900000F4003000900198401C0190009810B9B4
:1011A00001989842F3D11068800302D50120009085
:1011B00000E00091009801283FD1204840300168AC
:1011C00041F0805101601E49086840F440400860C9
:1011D0001A48083003680360036843F4004303605F
:1011E000036843F4A0530360041F164B2360136885
:1011F00043F08073136013689B01FCD50A6842F4C6
:1012000080320A604A68D203FCD50A6842F4003290
:101210000A604A689203FCD50B4A40F205711160DE
:10122000016821F003010160016841F002010160E1
:101230000168C1F381010229FAD11CBD00380240C6
:1012400000700040195A4007003C02400A2805D2AD
:10125000034A22F81010143222F8101070470000D0
:10126000A00500208168002907D040684FF47A72F9
:10127000504390FBF1F000B270470020704730B54A
:1012800043685C184460038800EB4303B3F90C50D7
:10129000641B4460846814448460B3F92050641B68
:1012A00084609981018800EB41010A840188491C0E
:1012B00089B201800A2901D30021018030BD0023B9
:1012C0000380438043608360002100EB41029381EF
:1012D0001384491C0A29F8DB7047000070B5FFF73A
:1012E0005DFA13484168491C4160016811B9016801
:1012F000491E016000200F4B0124A3F11401A1F14C
:10130000140531F8102052B131F81020012A00D113
:101310001C5431F81020521E21F8102003E035F83B
:10132000102021F81020401C0A28EADB70BD0000C4
:1013300034000020C805002010B5164842F2107194
:101340000068B0FBF1F0401E00214FF0E022B0F148
:10135000807F01D3012007E050610F4BF02018700F
:10136000916107201061002000B1FEE7106960F074
:10137000010010610020094A02F1140302F128045F
:1013800022F8101023F810102154401C0A28F7DB13
:1013900010BD00000000002023ED00E0A0050020AB
:1013A00010B51248016841F47001016010480168ED
:1013B00041F0010101600E4A00210832116002680B
:1013C0000C4B1A400260031D0B4A1A60026822F49B
:1013D0008022026006480C300160FFF7CDFE034911
:1013E0004FF000608039086010BD000088ED00E01B
:1013F00000380240FFFFF6FE1030002470B5104C9C
:1014000040F22551204600F014F940B1204600F08A
:10141000A9F90C4B59784A1C5A700B4A505440F2A7
:1014200027752946204600F004F9002806D02946F1
:101430002046BDE87040002200F01BB970BD0000DE
:10144000004C00403C000020D205002070B5104C3C
:1014500040F22551204600F0ECF840B1204600F063
:1014600081F90C4B59784A1C5A700B4A505440F27F
:1014700027752946204600F0DCF8002806D02946CA
:101480002046BDE87040002200F0F3B870BD0000B7
:101490000078004070000020080A002070B5164C4B
:1014A00040F22551204600F0C4F8A8B1204600F0D3
:1014B00059F9C1B2114B0025D87860B11048B0F984
:1014C000C800884202D0987800B9DD709A78501C24
:1014D0009870D8688154DD8040F2277529462046EF
:1014E00000F0A7F8002806D029462046BDE8704045
:1014F000002200F0BEB870BD0010014024000020A2
:101500008000002070B5104C40F22551204600F0BC
:1015100090F840B1204600F025F90C4B99784A1C10
:101520009A700B4A505440F227752946204600F025
:1015300080F8002806D029462046BDE870400022E9
:1015400000F097B870BD0000004400404800002043
:10155000D206002070B5104C40F22551204600F014
:1015600068F840B1204600F0FDF80C4B59784A1C51
:101570005A700B4A505440F227752946204600F015
:1015800058F8002806D029462046BDE870400022C1
:1015900000F06FB870BD00000048004060000020FF
:1015A000D408002070B5164D40F22551284600F0B1
:1015B00040F8A0B1284600F0D5F8C2B2114C6078CE
:1015C00001280CD12378104E581CC1B22170F2545E
:1015D0000D2A04D100204A1C22707054607040F221
:1015E00027742146284600F024F8002806D021461A
:1015F0002846BDE87040002200F03BB870BD0000F6
:101600000014014058000020D2070020002904D017
:10161000818941F4005181817047818921F4005111
:10162000818170470246002012880A4200D00120C2
:10163000704770B5002440F66A12C1F3421301F0FE
:101640001F05012606FA05F2012B0CD0022B0DD046
:10165000838A1340090A8E40008830400BB100B1E4
:101660000124204670BD83891340F3E7038A1340A9
:10167000F0E710B540F66A13C1F3421301F01F04FE
:101680000121A140012B07D0022B07D014303AB121
:1016900002680A43026010BD0C30F8E71030F6E72C
:1016A00002688A43026010BD7FB504460D46208A59
:1016B00020F44051E88808432082A08941F20C615F
:1016C0008843A9882A8911436A8902431143A18169
:1016D000A08A20F44071A8890843A0826846FFF7D9
:1016E00091FA1E48844202D01D48844201D10398D9
:1016F00000E00298A189090408D500EBC00101EBC4
:10170000001029684900B0FBF1F007E000EBC001D0
:1017100001EB001029688900B0FBF1F06422B0FBF6
:10172000F2F109010B096FF018056B4300EB830020
:10173000A3891D044FF0320307D503EBC000B0FBB3
:10174000F2F000F00700084306E003EB0010B0FBE6
:10175000F2F000F00F00084320817FBD001001402F
:10176000001401408088C0F308007047C1F30801ED
:1017700081807047FEE710B504462046FFF7F6FF6C
:1017800080212046FFF74EFF0028F9D010BD2DE93B
:10179000F04107460D46164600240BE015F8011BE4
:1017A0003846FFF7E3FF80213846FFF73BFF00286C
:1017B000F9D0641CB442F1DBBDE8F08170B5064697
:1017C0000D4600243046295DFFF7D5FF641C285DD7
:1017D0000028F7D140213046FFF724FF0028F9D038
:1017E00070BD00000FB4084B10B504A902AA0398FD
:1017F00000F01CF8044602A9002000F0C1F82046C1
:1018000010BC5DF814FB00008119000802E008C854
:10181000121F08C1002AFAD170477047002001E06A
:1018200001C1121F002AFBD1704700002DE9FF4FB4
:1018300089B09B460446002506E025280BD05A4671
:101840000B999047641C6D1C20780028F5D10DB0D1
:101850002846BDE8F08F0027B8460122474900E03E
:10186000074314F8013F203B02FA03F00842F7D186
:1018700020782E2819D114F8010F47F004072A28E0
:101880000ED06FF02F022078A0F1300109290CD87A
:1018900008EB880102EB410100EB0108641CF2E750
:1018A0000A98641C50F8048B0A9020780028CED047
:1018B000642808D0692806D075281ED05A460B998E
:1018C00090476D1C58E00A994FF00A0901C90A9126
:1018D000002802DA40422D2102E0390504D52B21EF
:1018E0008DF82010012103E0F90704D02021F7E74B
:1018F0008A4608AE0DE00021FAE70A994FF00A097E
:1019000001C90A91F7E74946FEF76CFC303106F849
:10191000011D0028F7D1ADEB060000F12009780782
:1019200001D44FF00108C84502DDA8EB090000E032
:1019300000208046002706E008A85A46C05D0B99A3
:1019400090476D1C7F1C5745F6DB04E030205A465B
:101950000B9990476D1CB8F10001A8F10108F5DC66
:1019600005E016F8010B5A460B9990476D1CB9F12A
:101970000001A9F10109F4DC641C65E709280100F4
:101980000A68531C0B60107070470000FFF7D4FC0E
:10199000FEF7D0FDDFF89880244AC8214046FEF7C4
:1019A0008BFDFFF71DF8FFF7D3F9FFF703FB4FF4AB
:1019B000FA710020FFF74AFC4FF47A710120FFF71B
:1019C00045FCC8210220FFF741FC64210320FFF7FA
:1019D0003DFCFEF73EFE174D174E0027174CFFF754
:1019E00055F8FFF7F7F9FFF727FB0020FEF722FE77
:1019F00088B1FEF749FE286880F4005028603078EE
:101A000028B10A4AC8214046FEF762FD37702078A7
:101A10000A2800D927700320FEF70CFE0028DED02C
:101A2000FFF73AFAFFF76CFBD9E7000080000020CF
:101A300000000108140402402400002025000020BA
:101A40000000C1C081C1400101C3C003800241C286
:101A500001C6C006800741C70005C1C581C4400456
:101A600001CCC00C800D41CD000FC1CF81CE400E06
:101A7000000AC1CA81CB400B01C9C009800841C816
:101A800001D8C018801941D9001BC1DB81DA401A86
:101A9000001EC1DE81DF401F01DDC01D801C41DC56
:101AA0000014C1D481D5401501D7C017801641D686
:101AB00001D2C012801341D30011C1D181D0401096
:101AC00001F0C030803141F10033C1F381F2403286
:101AD0000036C1F681F7403701F5C035803441F456
:101AE000003CC1FC81FD403D01FFC03F803E41FE06
:101AF00001FAC03A803B41FB0039C1F981F8403816
:101B00000028C1E881E9402901EBC02B802A41EA85
:101B100001EEC02E802F41EF002DC1ED81EC402C55
:101B200001E4C024802541E50027C1E781E6402685
:101B30000022C1E281E3402301E1C021802041E095
:101B400001A0C060806141A10063C1A381A2406285
:101B50000066C1A681A7406701A5C065806441A455
:101B6000006CC1AC81AD406D01AFC06F806E41AE05
:101B700001AAC06A806B41AB0069C1A981A8406815
:101B80000078C1B881B9407901BBC07B807A41BA85
:101B900001BEC07E807F41BF007DC1BD81BC407C55
:101BA00001B4C074807541B50077C1B781B6407685
:101BB0000072C1B281B3407301B1C071807041B095
:101BC0000050C190819140510193C0538052419285
:101BD0000196C056805741970055C1958194405455
:101BE000019CC05C805D419D005FC19F819E405E05
:101BF000005AC19A819B405B0199C0598058419815
:101C00000188C04880494189004BC18B818A404A84
:101C1000004EC18E818F404F018DC04D804C418C54
:101C20000044C184818540450187C0478046418684
:101C30000182C042804341830041C1818180404094
:101C4000601C000800000020800000000C18000844
:101C5000E01C000880000020C00E00001C180008D6
:101C60000095BA0A00000000000000000102030411
:101C70000607080900000000010203040102030432
:101C80000607080900000000000000000000000036
:101C900000000000000000000000000055000001EE
:101CA00003000000280000005500000000000000B4
:101CB00001030000002800000000000000000000F8
:101CC00055000000000000000203000000010000B9
:101CD00055000000000000000203000000010000A9
:04000005080001AD41
:00000001FF
