:020000040800F2
:10000000D00E0020C1010008610C000805060008A0
:100010004F07000835020008011300080000000027
:10002000000000000000000000000000110F0008A8
:100030006102000800000000E10C00080110000847
:10004000DB010008DB010008DB010008DB01000820
:10005000DB010008DB010008DB010008DB01000810
:10006000DB010008DB010008DB010008DB01000800
:10007000DB010008DB010008DB010008DB010008F0
:10008000DB010008DB010008DB010008DB010008E0
:10009000DB010008DB010008DB010008DB010008D0
:1000A000DB010008DB010008DB010008DB010008C0
:1000B000DB010008DB010008DB010008DB010008B0
:1000C000DB010008DB010008DB010008DB010008A0
:1000D000DB01000809110008DB010008DB01000852
:1000E000DB010008DB010008DB010008DB01000880
:1000F000DB010008DB010008DB010008DB01000870
:10010000DB010008DB010008DB010008DB0100085F
:10011000DB010008DB010008DB010008DB0100084F
:10012000DB010008DB010008DB010008DB0100083F
:10013000DB010008DB010008DB010008DB0100082F
:10014000DB010008DB010008DB010008DB0100081F
:10015000DB010008DB010008DB0100085111000889
:10016000DB010008DB010008DB010008DB010008FF
:10017000DB010008DB010008DB010008DB010008EF
:10018000DB010008DB010008DB010008DB010008DF
:10019000DB010008DB010008DB010008DB010008CF
:1001A000DB010008DB010008DB010008DFF80CD0F0
:1001B00000F02EF800480047E9140008D00E002097
:1001C0000648804706480047FEE7FEE7FEE7FEE7F1
:1001D000FEE7FEE7FEE7FEE7FEE7FEE7AD100008FC
:1001E000AD01000830B50B46014600202022012455
:1001F00009E021FA02F59D4205D303FA02F5491BF5
:1002000004FA02F52844151EA2F10102F1DC30BD0A
:10021000064C074D06E0E06840F0010394E8070053
:1002200098471034AC42F6D3FFF7C4FF4C170008D0
:100230006C170008FEE7000030B502464FF6FF706D
:10024000064D07E012F8013B4340DBB2040A35F8E3
:1002500013006040491EC9B2F4D230BD4C150008ED
:100260007047000001490860704700000C3C0240E4
:1002700070B506460025002905D0012927D002299E
:1002800028D04FF4407500F081F809281ED1134C96
:10029000206820F440702060206828432060206897
:1002A00020F0F8002060206846F00201084320603A
:1002B000206840F48030206000F068F8216821F068
:1002C00002012160216821F0F801216070BD4FF426
:1002D0008075D8E74FF40075D5E70000103C024068
:1002E00009200D490A68D20301D5012070470A6828
:1002F000D20601D5062070470A68D20501D5022032
:1003000070470A6812F0E00F01D0072070470968B3
:100310008907FBD5082070470C3C02400248016861
:1003200041F0004101607047103C024070B5054645
:100330000E4600F02BF8092813D10A4C206820F44F
:1003400040702060206840F480702060206840F099
:10035000010020602E8000F019F8216821F00101D1
:10036000216070BD103C024005480068002805DA95
:10037000034804490C3801600349016070470000DC
:10038000103C024023016745AB89EFCD08B5092039
:100390000090FFF7A5FF009002E0FFF7A1FF00909B
:1003A0009DF800000128F8D09DF8000008BD00006D
:1003B00001460020A1F100624FF480439A4204D329
:1003C00020480844984201D2082070471E4808443B
:1003D000984201D2102070471C480844984201D22C
:1003E000182070471A480844B0F5803F01D22020F9
:1003F000704718484FF400320844904201D2282038
:10040000704715480844904201D230207047134885
:100410000844904201D23820704711480844904265
:1004200001D2402070470F480844904201D2482032
:1004300070470D480844904201D250207047582020
:100440007047000000C0FFF70080FFF70040FFF793
:100450000000FFF70000FEF70000FCF70000FAF7CD
:100460000000F8F70000F6F70000F4F710B50023DD
:1004700005E030F8024B22F813405B1CDBB28B42E4
:10048000F7D310BD2DE9F04105460E461746FFF79C
:100490006BFFF320FFF7E6FE2846FFF789FF0446CF
:1004A00005EB4600FFF784FF804608E00221204666
:1004B000FFF7DEFE092800D0FEE70834A4B2444569
:1004C000F4D900240AE037F814102846FFF72EFF6D
:1004D000092800D0FEE7AD1C641CA4B2B442F2D3DC
:1004E000BDE8F041FFF71ABF7CB50121022000F002
:1004F000F9FB4FF48054009400208DF80600022090
:100500008DF8070001218DF804108DF805000A4EC2
:100510006946304600F012F865000095694630469D
:1005200000F00CF82146304600F056F829463046D7
:1005300000F052F87CBD0000000402402DE9F041BB
:10054000002201274FF0030C07FA02F50B682B403D
:10055000AB422CD1066853000CFA03F4A6430660A4
:100560000E79D0F800809E4046EA080606600E79B3
:10057000012E01D0022E12D18668A64386604E79E4
:10058000D0F808809E4046EA080686604668AE437A
:10059000466045688E799640B6B235434560C56879
:1005A000A543C560CC799C40C3681C43C460521C01
:1005B000102AC9D3BDE8F08110B54B07DB0E9A4075
:1005C000C90800EB8100016A0F249C40A14301622D
:1005D000016A1143016210BD018370470A2804D2E9
:1005E000074931F81020012A01D000207047044A41
:1005F000143A32F8102021F8102001207047000032
:1006000078050020FEE710B545F2555000F032F8AD
:10061000022000F023F840F6FF7000F025F800F00B
:1006200015F8BDE8104000F001B8000002494CF692
:10063000CC400860704700000030004002494AF694
:10064000AA200860704700000030004002494AF6C6
:10065000AA2008607047000000300040014948604F
:10066000704700000030004001498860704700007A
:100670000030004001490860704700000030004031
:1006800070B586B00121084600F02CFB0121102036
:1006900000F036FB00248DF8164001208DF817007D
:1006A00002258DF815508DF81450400204901C4E10
:1006B00004A93046FFF742FF8DF8145069020491F7
:1006C00004A93046FFF73AFF07220A213046FFF718
:1006D00073FF072209213046FFF76EFF4FF4E13028
:1006E0000090ADF80440ADF80640ADF80840ADF814
:1006F0000C400C20ADF80A000A4C6946204600F078
:1007000099FD00F011F8012240F22551204600F039
:1007100076FD0121204600F03FFD06B070BD0000CF
:10072000000002400010014008B54FF4A06000F046
:10073000CDFA25208DF8000001208DF801008DF8FC
:1007400002008DF80300684600F08CFA08BDFEE751
:100750002DE9F0410446D4F824556878002804D0E7
:10076000C11F082901D3102802D90120BDE8F0815A
:1007700094F82D05A0F10801F32901D30320F5E732
:10078000801EC1B22846FFF757FD014694F82D059B
:10079000AA1E835C6A1E805C43EA0020814201D06D
:1007A0000320E3E7E878A97840EA012168792A790B
:1007B00040EA02206A780126012A10D0022A0ED0CF
:1007C0000827052A4BD00F2A61D0032A76D0042AA5
:1007D00074D0062A73D0102A72D00020C6E7B0F574
:1007E000707F01D90320C1E70A18C82A01D302206B
:1007F000BCE7AA1C430706D0C3085B1C02F8013BF8
:100800000023002723E0C308F8E704EB410CBCF801
:1008100094C1BCF1000F08D092F800C006FA03F8AA
:100820004CEA080C82F800C007E092F800C006FA13
:1008300003F82CEA080C82F800C05B1CDBB2082B22
:1008400001D30023521C491C89B27F1CBFB28742CE
:10085000DBD3A878401D84F82E05002086E7C82940
:1008600001D3022082E7B0F57F4F02D030B10320E0
:100870007CE704EB4100A0F8946104E004EB410143
:100880000020A1F8940184F82E7500206EE70A1864
:10089000C82A01D3022069E70022ED1D04EB4103C1
:1008A00003F5CA73002118E095F800C006FA02F8B3
:1008B0001CEA080F05D04FF0010C04E013E034E00F
:1008C00040E04FF0000C23F802CB521CD2B2082AB1
:1008D00001D300226D1C491C89B28142E4D384F803
:1008E0002E75002042E77D2801D903203EE70E182F
:1008F000C82E01D3022039E72B4604EB4102121D1A
:1009000040009870DB1C08E01088000A187012F88C
:10091000020B58709B1C491C89B28E42F4D8A878EF
:10092000401D84F82E05002020E7C82901D30220AD
:100930001CE704EB4101888084F8346584F82E7547
:10094000002013E70B18C82B01D302200EE7ED1D82
:1009500004EB4100001D0CE015F8012B120202808F
:1009600015F801CB4CEA020CA0F800C0801C491C11
:1009700089B28B42F0D884F8346584F82E75002053
:10098000F4E6000070B5044604F1CC026421284866
:10099000FFF76CFDB4F9CC00FF2802D90120A4F8C0
:1009A000CC00B4F9CE004FF4C0754FF490616028CC
:1009B00007D0C02805D0A84203D0884201D0A4F8AF
:1009C000CE10B4F8D000401CA4F8D000B4F8CC008D
:1009D0006080B4F9CE00208060280AD00A22C028A6
:1009E0000BD00523A8420BD088420CD184F83035B7
:1009F0000BE00F2084F8300507E084F8302504E090
:100A000084F8303501E084F83025002084F82C0586
:100A100084F82F05A4F8320584F8340504F54970EC
:100A2000C4F8240504F22440C4F8280570BD000071
:100A30000000010870B505460E4605F224552868E9
:100A4000417841F0800141702968687B88700321FA
:100A50002868FFF7F1FB2968C8702968000AA5F229
:100A6000245508710024D5F82405015D304600F0B6
:100A700043FC4021304600F09BFB0028F9D0641C69
:100A8000052CF0DB70BD10B590F82F250023002A4F
:100A900010D0B0F902208A4204D090F82C250AB96F
:100AA00080F82F3590F82C25541C80F82C45D0F870
:100AB0002845A154A0F8323510BD70B504460E4645
:100AC00004F22454A07A801EC1B22068FFF7B4FB60
:100AD000A27A2168114401F8020CA27A2168000A66
:100AE0001144A4F2245401F8010C00250CE0D4F8C0
:100AF0002405415D304600F0FFFB4021304600F008
:100B000057FB0028F9D06D1C94F82E05A842EEDCA6
:100B100070BD000010B5044694F83405002825D0B7
:100B2000B4F9CC00FF2802D90120A4F8CC00B4F914
:100B3000CE0060280AD0C02808D0B0F5C07F05D00C
:100B40004FF49062904201D0A4F8CE20B4F8CC00CB
:100B50006080B4F8CE00208029B104F1CC02642179
:100B60000348FFF78FFC002084F8340510BD000017
:100B70000000010870B504460D46B4F8320594F83B
:100B80003015884225D904F2245422686068206018
:100B90006260227A6272002626720121E172A4F25A
:100BA0002454082A13D30078B4F9021088420ED1D5
:100BB0002046FFF7CDFD84F8310520B129462046B7
:100BC000FFF738FF03E029462046FFF776FFA4F839
:100BD000326570BD0348B0F83215491CA0F83215D3
:100BE000704700002C00002030B599B00C48FFF78A
:100BF000C9FE0B4D6421288810FB01F4FFF794FD1A
:100C00002046FFF73DFDB5F90220234605A16846C1
:100C100000F096FB69460D4800F07FFB19B030BD2F
:100C20002C0000202050726F6772616D20496E6940
:100C30007469616C697A652E2E2E204164723A25A2
:100C4000642C20426175643A256400000010014064
:100C500001490248FFF78EBF001001402C00002020
:100C60007047000030B50F23C27801250178002AB3
:100C70001FD0154A126802F4E062C2F5E062C2F3C6
:100C80000722C2F10404D3404278A24084781C4079
:100C90001443220101F1E02181F80024007800F0E2
:100CA0001F018D404009800000F1E020C0F8005194
:100CB00030BD01F01F0085404809800000F1E020B0
:100CC000C0F8805130BD00000CED00E0024908433F
:100CD00002490860704700000000FA050CED00E0D2
:100CE00070470000054A002903D0116801431160D4
:100CF000704711688143116070470000303802402E
:100D0000054A002903D0116801431160704711683A
:100D100081431160704700004438024070B5244B95
:100D2000196801F00C01234C00291ED0224E042921
:100D30001DD008291DD00460196801F0F0010909CF
:100D40001E4A545C0168E14041601C6804F4E054B0
:100D5000A40A145D21FA04F484601B6803F4604360
:100D60005B0BD25CD140C16070BD0460E4E70660FB
:100D7000E2E70F4A121F1168C1F38055116801F0B4
:100D80003F0135B1B6FBF1F11468C4F38814614337
:100D900005E0B4FBF1F11468C4F3881461431268F0
:100DA000C2F30142521C5200B1FBF2F10160C3E7F1
:100DB000083802400024F40040787D01140000202F
:100DC000F0B587B0064601210420FFF78BFF012113
:100DD0002020FFF795FF00248DF81A4001208DF8A0
:100DE0001B0002258DF819508DF8185080210591AF
:100DF0001B4F05A93846FFF7A1FB8DF8185040207E
:100E0000059005A93846FFF799FB082206213846C8
:100E1000FFF7D2FB082207213846FFF7CDFB6420FD
:100E200046430196ADF80840ADF80A40ADF80C40D5
:100E3000ADF810400C20ADF80E000A4C01A9204678
:100E400000F0F8F900F010F8012240F22551204698
:100E500000F0D5F90121204600F09EF907B0F0BD61
:100E6000000802400014014008B54FF4A060FFF7ED
:100E70002DFF47208DF8000001208DF8010003218F
:100E80008DF802108DF803006846FFF7EBFE08BDF1
:100E90000348B0F83215491CA0F83215704700001D
:100EA0009805002030B599B00A48FFF76BFD094D51
:100EB0006421288810FB01F4FFF7D6FF20B2FFF76A
:100EC0007FFFB5F90220234603A1684600F038FAF7
:100ED00019B030BD980500202050726F6772616DA7
:100EE00020496E697469616C697A652E2E2E2041E5
:100EF00064723A25642C20426175643A25640000CE
:100F000001490248FFF736BE001401409805002051
:100F1000704700001CB50021019100912E4A106815
:100F200040F4803010604FF4A043106800F40030AB
:100F300000900198401C0190009810B901989842C7
:100F4000F3D11068800302D50120009000E00091E9
:100F5000009801283FD120484030016841F080517D
:100F600001601E49086840F4404008601A48083093
:100F700003680360036843F400430360036843F4B9
:100F8000A0530360041F164B2360136843F0807363
:100F9000136013689B01FCD50A6842F480320A6032
:100FA0004A68D203FCD50A6842F400320A604A68F3
:100FB0009203FCD50B4A40F205711160016821F0E3
:100FC00003010160016841F0020101600168C1F3A1
:100FD00081010229FAD11CBD003802400070004096
:100FE000195A4007003C02400A2806D2034A491C0D
:100FF00022F81010143222F81010704764050020F7
:1010000010B5FFF7E7FDFFF743FF0C484168491CA7
:101010004160016811B90168491E0160002008495A
:1010200031F81020012A04D931F81020521E21F87D
:101030001020401C0A28F3DB10BD00002400002013
:101040007805002010B5164842F210710068B0FB18
:10105000F1F0401E00214FF0E022B0F1807F01D37B
:10106000012007E050610F4BF020187091610720BC
:101070001061002000B1FEE7106960F0010010610E
:101080000020094A02F1140302F1280422F810108A
:1010900023F810102154401C0A28F7DB10BD000073
:1010A0000000002023ED00E06405002010B5124888
:1010B000016841F4700101601048016841F00101CC
:1010C00001600E4A00210832116002680C4B1A4080
:1010D0000260031D0B4A1A60026822F4802202603B
:1010E00006480C300160FFF715FF03494FF0006020
:1010F0008039086010BD000088ED00E00038024033
:10110000FFFFF6FE1030002470B50F4C40F2255161
:10111000204600F054F830B1204600F0E9F8C1B2A2
:101120000A48FFF7B0FC40F227752946204600F038
:1011300046F8002806D029462046BDE87040002227
:1011400000F05DB870BD0000001001402C000020D0
:1011500070B50F4C40F22551204600F030F830B108
:10116000204600F0C5F8C1B20A48FFF78CFC40F2F7
:1011700027752946204600F022F8002806D0294687
:101180002046BDE87040002200F039B870BD000074
:101190000014014098050020002904D0818941F401
:1011A000005181817047818921F40051818170470C
:1011B0000246002012880A4200D00120704770B514
:1011C000002440F66A12C1F3421301F01F05012604
:1011D00006FA05F2012B0CD0022B0DD0838A1340A6
:1011E000090A8E40008830400BB100B1012420462E
:1011F00070BD83891340F3E7038A1340F0E710B50D
:1012000040F66A13C1F3421301F01F040121A1400B
:10121000012B07D0022B07D014303AB102680A43E1
:10122000026010BD0C30F8E71030F6E702688A4320
:10123000026010BD7FB504460D46208A20F440515F
:10124000E88808432082A08941F20C618843A9887C
:101250002A8911436A8902431143A181A08A20F49B
:101260004071A8890843A0826846FFF757FD1E48D1
:10127000844202D01D48844201D1039800E00298C4
:10128000A189090408D500EBC00101EB0010296811
:101290004900B0FBF1F007E000EBC00101EB0010EA
:1012A00029688900B0FBF1F06422B0FBF2F109017A
:1012B0000B096FF018056B4300EB8300A3891D0435
:1012C0004FF0320307D503EBC000B0FBF2F000F0A3
:1012D0000700084306E003EB0010B0FBF2F000F05B
:1012E0000F00084320817FBD001001400014014021
:1012F0008088C0F308007047C1F3080181807047FF
:10130000FEE710B504462046FFF7F6FF8021204691
:10131000FFF74EFF0028F9D010BD70B506460D4608
:1013200000243046295DFFF7ECFF641C285D00288F
:10133000F7D140213046FFF73BFF0028F9D070BDC0
:101340000FB4084B10B504A902AA039800F01CF8CA
:10135000044602A9002000F0C1F8204610BC5DF848
:1013600014FB0000DD14000802E008C8121F08C1C9
:10137000002AFAD170477047002001E001C1121F16
:10138000002AFBD1704700002DE9FF4F89B09B4632
:101390000446002506E025280BD05A460B999047B5
:1013A000641C6D1C20780028F5D10DB02846BDE8DE
:1013B000F08F0027B8460122474900E0074314F8A0
:1013C000013F203B02FA03F00842F7D120782E2893
:1013D00019D114F8010F47F004072A280ED06FF036
:1013E0002F022078A0F1300109290CD808EB8801E0
:1013F00002EB410100EB0108641CF2E70A98641C4F
:1014000050F8048B0A9020780028CED0642808D0A9
:10141000692806D075281ED05A460B9990476D1C36
:1014200058E00A994FF00A0901C90A91002802DA26
:1014300040422D2102E0390504D52B218DF82010E2
:10144000012103E0F90704D02021F7E78A4608AE1E
:101450000DE00021FAE70A994FF00A0901C90A9143
:10146000F7E74946FEF7BEFE303106F8011D0028B9
:10147000F7D1ADEB060000F12009780701D44FF059
:101480000108C84502DDA8EB090000E00020804605
:10149000002706E008A85A46C05D0B9990476D1CCE
:1014A0007F1C5745F6DB04E030205A460B999047E5
:1014B0006D1CB8F10001A8F10108F5DC05E016F893
:1014C000010B5A460B9990476D1CB9F10001A9F127
:1014D0000109F4DC641C65E7092801000A68531C53
:1014E0000B60107070470000FFF7ACFDFEF7FCFFCB
:1014F000FFF77AFBFFF7D6FC4FF4FA710020FFF7F5
:1015000073FD4FF47A710120FFF76EFDFFF77BF852
:101510000C4CFFF79DFBFFF7F3FC0020FFF75EF894
:1015200028B1FFF78BF8206880F40050206001207C
:10153000FFF754F80028ECD001210348FFF7EAFA3E
:10154000E7E70000140402402C0000200000C1C0A6
:1015500081C1400101C3C003800241C201C6C0066F
:10156000800741C70005C1C581C4400401CCC00C3F
:10157000800D41CD000FC1CF81CE400E000AC1CAFF
:1015800081CB400B01C9C009800841C801D8C018EF
:10159000801941D9001BC1DB81DA401A001EC1DE6F
:1015A00081DF401F01DDC01D801C41DC0014C1D45F
:1015B00081D5401501D7C017801641D601D2C0127F
:1015C000801341D30011C1D181D0401001F0C0304F
:1015D000803141F10033C1F381F240320036C1F66F
:1015E00081F7403701F5C035803441F4003CC1FC3F
:1015F00081FD403D01FFC03F803E41FE01FAC03AFF
:10160000803B41FB0039C1F981F840380028C1E82E
:1016100081E9402901EBC02B802A41EA01EEC02E6E
:10162000802F41EF002DC1ED81EC402C01E4C0245E
:10163000802541E50027C1E781E640260022C1E27E
:1016400081E3402301E1C021802041E001A0C0608E
:10165000806141A10063C1A381A240620066C1A66E
:1016600081A7406701A5C065806441A4006CC1AC3E
:1016700081AD406D01AFC06F806E41AE01AAC06AFE
:10168000806B41AB0069C1A981A840680078C1B8EE
:1016900081B9407901BBC07B807A41BA01BEC07E6E
:1016A000807F41BF007DC1BD81BC407C01B4C0745E
:1016B000807541B50077C1B781B640760072C1B27E
:1016C00081B3407301B1C071807041B00050C190CE
:1016D000819140510193C053805241920196C0566E
:1016E000805741970055C19581944054019CC05C3E
:1016F000805D419D005FC19F819E405E005AC19AFE
:10170000819B405B0199C059805841980188C0482D
:1017100080494189004BC18B818A404A004EC18E6D
:10172000818F404F018DC04D804C418C0044C1845D
:10173000818540450187C047804641860182C0427D
:10174000804341830041C181818040406C17000883
:10175000000000202C000000681300089817000803
:101760002C000020A40E0000781300080095BA0A8F
:101770000000000000000000010203040607080941
:101780000000000001020304010203040607080927
:08179000000000000000000051
:04000005080001AD41
:00000001FF
