:020000040800F2
:10000000D80E0020C101000895170008051300084C
:100010004F140008E50C00087127000800000000DC
:10002000000000000000000000000000B5210008F2
:10003000090F000800000000751900081D230008C2
:10004000DB010008DB010008DB010008DB01000820
:10005000DB010008DB010008DB010008DB01000810
:10006000DB010008DB010008DB010008DB01000800
:10007000DB010008DB010008DB010008DB010008F0
:10008000DB010008DB010008DB010008DB010008E0
:10009000DB010008DB010008DB010008DB010008D0
:1000A000DB010008DB010008DB010008DB010008C0
:1000B000DB010008DB010008DB010008DB010008B0
:1000C000DB010008DB010008DB010008DB010008A0
:1000D000DB01000871240008D92400082925000844
:1000E000DB010008DB010008DB010008DB01000880
:1000F000DB010008DB010008DB010008DB01000870
:10010000DB010008DB010008DB010008DB0100085F
:10011000DB010008DB010008DB010008DB0100084F
:10012000DB010008DB010008DB010008DB0100083F
:10013000DB010008DB010008DB010008DB0100082F
:10014000DB010008DB010008DB010008DB0100081F
:10015000DB010008DB010008DB010008792500084D
:10016000DB010008DB010008DB010008DB010008FF
:10017000DB010008DB010008DB010008DB010008EF
:10018000DB010008DB01000821240008DB01000876
:10019000DB010008DB010008DB010008DB010008CF
:1001A000DB010008DB010008DB010008DFF80CD0F0
:1001B00000F024FB0048004795290008D80E0020D5
:1001C0000648804706480047FEE7FEE7FEE7FEE7F1
:1001D000FEE7FEE7FEE7FEE7FEE7FEE7C5230008D1
:1001E000AD0100080FB400B58DB010A909900B90B7
:1001F00000914FF0FF300A9000200C9005480690C7
:10020000054807906A4609A80F9900F0BFF90DB09C
:100210005DF814FBA9050008C70500082DE9FF4F8C
:10022000087881B09946FF2805D0491C2D2804D0B4
:100230000024002308E000230BE00124F9E703EB8E
:10024000830300EB4303491C0878FF28F7D104B16E
:100250005B4200200090147801462D2C01D02B2CFD
:1002600004D1521C2D2C12D00024009400251678A5
:10027000FF2E0ED00A24A0FB04C801FB0481002736
:1002800000FB0711521C16EB0C006941EFE701243B
:10029000EBE7994450EA01020ED00024AA4D26460D
:1002A000DFF8A88200F081FA82468B46B9F100009F
:1002B00009DAC9F100071BE001980021C0E900112B
:1002C00005B0BDE8F08F074612E0F80707D02246D8
:1002D0002B463046414600F087F9064688462246BE
:1002E0002B461046194600F07FF904460D467F1054
:1002F000002FEAD1B9F1000F324643465046594625
:1003000002DA00F0E3F901E000F06EF9009A0AB1B8
:1003100081F00041019AC2E90001D1E72DE9FF4FC8
:100320001F468DB0D7E901464FF0FF382E204546D5
:100330004FF000090B90B9696D1C0E988847396A17
:10034000824688470028F6D1BAF1FF3F0AD024F44C
:10035000D064002E11DDBAF12B0F08D0BAF12D0FA9
:100360000BD102E0404611B0ABE744F48064B969B8
:100370006D1C0E9888478246761E6946600501D539
:100380002D2000E02B208DF8000001F1010B0DF174
:10039000200809E0B9696D1C0E98884782460F98BD
:1003A00044F40074761E0560002E02DDBAF1300FB1
:1003B000F0D00B998A453ED144F0800406E00F99B5
:1003C000681CA9F1010944F400740860B9696D1C46
:1003D000761E0E98884782463028F0D02BE00B9985
:1003E0008A4505D1200603D444F08004761E18E027
:1003F000504602F018FA08B30DF11301761E44F4CA
:1004000000748B4508D2AAF130000BF8010B2006CE
:1004100007D5A9F1010003E0200602D409F101008B
:100420008146A00502D50F99681C0860B9696D1C4A
:100430000E9888478246002ED1DC53E0002E51DD15
:10044000BAF1650F02D0BAF1450F4BD1A00549D5DD
:10045000B9696D1C24F44074761E0E988847824654
:10046000002E0CDD2B2804D0BAF12D0F07D144F457
:100470008074B9696D1C0E9888478246761EE00527
:1004800001D52D2100E02B2108F8011BCDF82C808F
:1004900021E00DF12901761E44F4007488450CD248
:1004A000AAF1300010F0FF0088F8000002D10B998B
:1004B000884509D908F1010806E0E00501D524487E
:1004C00001E042F20F708146B9696D1C0E988847B1
:1004D00082460F980560002E04DD504602F0A3F915
:1004E0000028D6D1F9690E988847FF208BF80000C4
:1004F00088F800000020069007904B466A4608A93D
:1005000006A8FFF78BFEA00502D46FF001002AE7D2
:1005100014F0240F0AD0E00714D1DDE90612386880
:10052000031D3B600068C0E900120BE0DDE9060135
:1005300000F047F90146E00704D13868021D3A602F
:100540000068016028460EE7000024400000F03FEC
:10055000F1D8FFFF30B50B460146002020220124D0
:1005600009E021FA02F59D4205D303FA02F5491B81
:1005700004FA02F52844151EA2F10102F1DC30BD97
:10058000026811441378016018467047D16004492D
:1005900051610449116200211161114600F064B9F2
:1005A000810500085F080008426842B1016811F83F
:1005B000013B23B1521EC0E90012184670470121C9
:1005C000C160881E704742685AB1C368016843B968
:1005D00083688B4205D0491E521CC0E900120020DE
:1005E00070474FF0FF3070472DE9FE4F81EA03045A
:1005F00004F0004421F0004100944FF0000B23F080
:10060000004350EA01045ED052EA03045BD0C3F316
:100610000A54C1F30A552C44A4F2F3340194A0FB0C
:100620000254C1F3130141F48011C3F3130343F4E3
:10063000801301FB024400FB034E840A970A44EA3C
:10064000815447EA8357A4FB076802958D0A05FB8E
:1006500007854FEA932C04FB0C542705029D4FEAB3
:10066000065847EA1637B5EB08056EEB070C870E00
:10067000920E47EA811742EA8312A7FB0201B6EB0A
:100680000B0164EB00042B0D43EA0C335E1844EBC2
:100690001C50DA465146E7FB0201C5F313044FEA4A
:1006A0000B3343EA14534FEA0432019C43EA060336
:1006B000A4F10C040294009CCDE900B400F0B0FA5F
:1006C00003B0BDE8F08F00200146F9E72DE9F04DB9
:1006D00081EA030404F0004B21F0004514464FF07A
:1006E000000A23F0004150EA050220D054EA01023A
:1006F0001DD0C5F30A570246C5F31303C1F3130017
:10070000C1F30A5640F4801543F48013A7EB0608A2
:10071000101BD64608F2FD3873EB050002D308F132
:10072000010801E092185B41B8F1000F03DA0020E4
:100730000146BDE8F08D00204FF480110646844646
:100740000EE0171B73EB050705D3121B63EB0503C4
:1007500006434CEA010C49084FEA300092185B410D
:1007600050EA0107EDD152EA030012D082EA0400F8
:1007700083EA0501084305D0101BAB4106D20122D4
:10078000002306E000224FF0004302E06FF0010278
:1007900053101AEB06004CEB085110EB0A0041EB2A
:1007A0000B01BDE8F04D00F02CBA0EB540F233421B
:1007B00002920022CDE90022134600F031FA03B084
:1007C00000BD01F0004330B421F0004150EA0102C5
:1007D00006D00A0DA2F56072C1F31301002A02DCF3
:1007E00030BC00207047440F44EAC104C100E01847
:1007F00030BC00EBC25000F0CDB90000064C074DF4
:1008000006E0E06840F0010394E8070098471034E0
:10081000AC42F6D3FFF7CEFC482D0008682D000847
:10082000202A04DB203A00FA02F1002070479140B0
:10083000C2F1200320FA03F3194390407047202AA5
:1008400004DB203A21FA02F00021704721FA02F37A
:10085000D040C2F120029140084319467047C0B20F
:100860004FF4F05100F02ABA2DE9F34F8BB04FF05E
:10087000000801F10C000C464FF0010B46460DF14B
:10088000080A01906269012101989047051E2DD048
:10089000252D2CD0216A8847C0B1626901210198B9
:1008A0009047216A88470028F7D1411E6269019864
:1008B000904700E0761CA1690B988847216A884719
:1008C0000028F7D1E1690B988847DBE7A1690B980D
:1008D00088470746A84201D1761CD3E7E1690B9807
:1008E00088477F1C02D1B8F1000F6FD046E1002786
:1008F00062693D463946019890472A2804D16269C9
:100900000121019890470125DFF884926269012155
:1009100001989047A0F130010A290AD24F45E5DC41
:1009200007EB870100EB4107303FDFD445F01005AE
:10093000ECE7E90601D46FF000476C280AD04C2898
:1009400014D0682815D06A280DD074281CD07A28B5
:100950001AD01DE062690121019890476C2802D0ED
:1009600045F0040514E045F002050DE045F02005D2
:100970000AE06269012101989047682802D045F099
:10098000080505E045F4006562690121019890477A
:10099000C4E9015765283DD019DC58287AD00CDC11
:1009A000452837D004DC252826D0412831D131E034
:1009B00046282FD047282CD12CE05B2877D06128FF
:1009C00028D063287CD0642823D15AE0D0E06F2857
:1009D00048D008DC66281DD067281BD0692821D0A4
:1009E0006E2816D127E0702845D0732868D0752866
:1009F00047D078280DD14DE0A1690B98884705466E
:100A000025283FF469AFE1690B9888476D1C3FF4D6
:100A10006AAFB3E023466A466FF001000B99FFF717
:100A20007DFC9EE045F040006060A80723464FF043
:100A3000000236D43EE0E8077FF447AF2068011D8E
:100A400021600068290501D506701BE7290701D53B
:100A5000068017E7A90703D5F117C0E9006111E780
:100A600006600FE745F040006060A80723464FF09E
:100A7000080216D41EE040F60E0125EA010060606F
:100A800016E045F040006060A80723464FF00A02D8
:100A900007D40FE045F040006060A80708D5234662
:100AA00010226FF001000B99AFF3008059E007E0CE
:100AB000234610226FF001000B99AFF3008050E045
:100AC0004FF000094F464B46632802D05B2806D002
:100AD00040E0E80601D40120A06001273AE0626905
:100AE0000121019890475E2805D14FF00109626904
:100AF000494601989047216939B900210A46534671
:100B000043F82120491C0829FADBB0B3216969B9EF
:100B1000C11700EBD16253110AEB830122F01F02CF
:100B2000821A01200B68904003430B606269012127
:100B3000019890475D28E8D1B9F1000F09D0002055
:100B4000514651F82020D24341F82020401C08286B
:100B5000F7DB02AB224600976FF001000B99AFF371
:100B6000008000280CDA401C08D1BBF1000F05D032
:100B70004FF0FF300DB0BDE8F08FFFE74046F9E7DA
:100B8000E90701D108F1010806444FF0000B79E6AE
:100B9000CCCCCC0C0029A8BF7047401C490008BF32
:100BA00020F00100704710B4B0FA80FC00FA0CF09D
:100BB00050EA010404BF10BC704749B1CCF12004D5
:100BC00021FA04F411FA0CF118BF01212143084362
:100BD000A3EB0C01CB1D4FEA00614FEA102042BF8E
:100BE000002010BC704700EBC35010440029A4BF84
:100BF00010BC7047401C490008BF20F0010010BC29
:100C0000704710B5141E73F1000408DA401C41F15E
:100C1000000192185B411A4301D120F0010010BD80
:100C20002DE9F04D92469B4611B1B1FA81F202E0F6
:100C3000B0FA80F220329046FFF7F2FD04460F46EC
:100C400040EA0A0041EA0B0153465A46084313D0D2
:100C5000114653EA010019D0C8F140025046FFF78F
:100C6000EEFD05460E46504659464246FFF7D8FD72
:100C7000084305D0012004E020463946BDE8F08D48
:100C80000020054346EAE0762C4337430A98630583
:100C9000E40AA0EB08000022FD0A44EA47540A30A7
:100CA00002D500200146E9E7010510196941DDE997
:100CB000084500196941BDE8F04DA2E77F2801D938
:100CC000002208E0064A02EB5002C007127800D169
:100CD000120902F00F020120904008407047000006
:100CE000082D0008FEE7000030B502464FF6FF7001
:100CF000064D07E012F8013B4340DBB2040A35F829
:100D000013006040491EC9B2F4D230BD082B000860
:100D1000F0B587B006460121042000F02DFE012128
:100D2000202000F045FE00248DF81A4001208DF8A7
:100D30001B0002258DF819508DF81850802105915F
:100D40001B4F05A9384600F073FA8DF81850402063
:100D5000059005A9384600F06BFA082206213846AE
:100D600000F0A4FA08220721384600F09FFA642018
:100D700046430196ADF80840ADF80A40ADF80C4086
:100D8000ADF810400C20ADF80E000A4C01A9204629
:100D900001F088FC00F02EF8012240F22551204697
:100DA00001F065FC0121204601F02EFC07B0F0BDEA
:100DB000000802400014014010B50C49B1F8CE0003
:100DC00060280AD0C02808D04FF4C072904204D0E6
:100DD000B0F5906F01D0A1F8CE20B1F9CE00FFF7A9
:100DE00097FF034900200870487010BDE8000020FC
:100DF0006C00002008B54FF4A06000F001FD472012
:100E00008DF8000001208DF8010003218DF80210FB
:100E10008DF80300684600F0BFFC08BD70B52DEDED
:100E2000028B82B02F4C6078002857D02E4D688AF4
:100E3000401C80B268822D4EB2EE048A717850292F
:100E400017D1401C6882221D29A13046FFF7CAF93C
:100E500001280ED100F03CFA94ED010A20EE080AB8
:100E6000BCEEC00A10EE101A2980A18A411A6980CE
:100E70006061707843282BD11A4820A11030031FDD
:100E800000901A1F1948FFF7ADF9032820D100F090
:100E90001FFA94ED020A20EE080ABCEEC00A10EE1A
:100EA000101AA98094ED030A20EE080ABCEEC00ACD
:100EB00010EE101AE98094ED040A20EE080ABCEE48
:100EC000C00A10EE101A2981218B411A6981A06194
:100ED000688A401C688200202070607002B0BDECFF
:100EE000028B70BD6C000020E8000020D8090020B3
:100EF00024504950532C25662C4D2A002443256646
:100F00005025665225662A007047000070B50146DC
:100F10000F4DA868427842F0800242708170032130
:100F2000FFF7E2FEA968C870000A08710024094EA4
:100F3000A868015D304601F017FC4021304601F001
:100F40006FFB0028F9D0641C052CF1DB70BD00009C
:100F50002400002000100140014908607047000093
:100F60000C3C024070B506460025002905D0012939
:100F700027D0022928D04FF4407500F081F80928C5
:100F80001ED1134C206820F4407020602068284354
:100F90002060206820F0F8002060206846F0020100
:100FA00008432060206840F48030206000F068F83A
:100FB000216821F002012160216821F0F8012160FF
:100FC00070BD4FF48075D8E74FF40075D5E7000089
:100FD000103C024009200D490A68D20301D50120C6
:100FE00070470A68D20601D5062070470A68D20504
:100FF00001D5022070470A6812F0E00F01D00720E7
:10100000704709688907FBD5082070470C3C0240EF
:101010000248016841F0004101607047103C024005
:1010200070B505460E4600F02BF8092813D10A4C7E
:10103000206820F440702060206840F480702060B8
:10104000206840F0010020602E8000F019F821682F
:1010500021F00101216070BD103C0240054800688C
:10106000002805DA034804490C380160034901608F
:1010700070470000103C024023016745AB89EFCD6B
:1010800008B509200090FFF7A5FF009002E0FFF7E8
:10109000A1FF00909DF800000128F8D09DF8000005
:1010A00008BD000001460020A1F100624FF480431A
:1010B0009A4204D320480844984201D2082070473D
:1010C0001E480844984201D2102070471C4808442A
:1010D000984201D2182070471A480844B0F5803F62
:1010E00001D22020704718484FF400320844904243
:1010F00001D22820704715480844904201D2302080
:10110000704713480844904201D238207047114874
:101110000844904201D2402070470F480844904252
:1011200001D2482070470D480844904201D2502017
:10113000704758207047000000C0FFF70080FFF79D
:101140000040FFF70000FFF70000FEF70000FCF78B
:101150000000FAF70000F8F70000F6F70000F4F7D7
:1011600010B5002305E030F8024B22F813405B1C59
:10117000DBB28B42F7D310BD2DE9F04105460E4698
:101180001746FFF76BFFF320FFF7E6FE2846FFF751
:1011900089FF044605EB4600FFF784FF804608E020
:1011A00002212046FFF7DEFE092800D0FEE70834C2
:1011B000A4B24445F4D900240AE037F814102846B4
:1011C000FFF72EFF092800D0FEE7AD1C641CA4B277
:1011D000B442F2D3BDE8F041FFF71ABF7CB501215C
:1011E000022000F0C9FB4FF48054009400208DF8D9
:1011F000060002208DF8070001218DF804108DF8FB
:1012000005000A4E6946304600F012F86500009568
:101210006946304600F00CF82146304600F056F89A
:101220002946304600F052F87CBD00000004024020
:101230002DE9F041002201274FF0030C07FA02F5D7
:101240000B682B40AB422CD1066853000CFA03F418
:10125000A64306600E79D0F800809E4046EA080654
:1012600006600E79012E01D0022E12D18668A643A7
:1012700086604E79D0F808809E4046EA080686606F
:101280004668AE43466045688E799640B6B23543AF
:101290004560C568A543C560CC799C40C3681C43C4
:1012A000C460521C102AC9D3BDE8F08110B54B07A9
:1012B000DB0E9A40C90800EB8100016A0F249C40B4
:1012C000A1430162016A1143016210BD01837047AD
:1012D0000148406870470000340000200A2804D20A
:1012E000074931F81020012A01D000207047044A34
:1012F000143A32F8102021F8102001207047000025
:101300001C060020FEE710B545F2555000F032F8FB
:10131000022000F023F840F6FF7000F025F800F0FE
:1013200015F8BDE8104000F001B8000002494CF685
:10133000CC400860704700000030004002494AF687
:10134000AA200860704700000030004002494AF6B9
:10135000AA20086070470000003000400149486042
:10136000704700000030004001498860704700006D
:101370000030004001490860704700000030004024
:1013800070B586B00121084600F0F6FA0121102060
:1013900000F00EFB00248DF8164001208DF8170098
:1013A00002258DF815508DF81450400204901C4E03
:1013B00004A93046FFF73CFF8DF8145069020491F0
:1013C00004A93046FFF734FF07220A213046FFF711
:1013D0006DFF072209213046FFF768FF4FF4E13027
:1013E0000090ADF80440ADF80640ADF80840ADF807
:1013F0000C400C20ADF80A000A4C6946204601F06A
:1014000051F900F011F8012240F22551204601F077
:101410002EF90121204601F0F7F806B070BD00005A
:10142000000002400010014008B54FF4A06000F039
:10143000E7F925208DF8000001208DF801008DF8D6
:1014400002008DF80300684600F0A6F908BDFEE72B
:101450000248C188491CC180704700002400002058
:101460002DE9F0438A4CA0684178002904D0CA1FB6
:10147000082A01D3102902D90120BDE8F08321797F
:10148000A1F10802F32A01D30320F6E7891EC9B2AD
:10149000FFF72AFC2179A268114411F8023D49782E
:1014A00043EA0121884201D00320E6E7D078917811
:1014B00040EA01205179137941EA03215378DFF89A
:1014C000D4C10126012B01D0022B3CD1B1F5707F94
:1014D00001D90320D1E74318C82B01D30220CCE760
:1014E000921C4B0707D0CB085B1C02F8013B05465A
:1014F0000023002721E0CB08F7E73CF81580B8F17E
:10150000000F08D092F8008006FA03F948EA0908AB
:1015100082F8008007E092F8008006FA03F928EAD2
:10152000090882F800805B1CDBB2082B01D3002382
:10153000521C6D1CADB27F1CBFB28F42DDD3A268BE
:101540009278521D6271A36808275A78052A10D133
:10155000C82801D3022090E7B1F57F4F02D021B116
:1015600003208AE72CF8106002E000222CF81020FB
:1015700067715A780F2A23D14218C82A01D3022052
:101580007BE70022DB1D0CEB400C002515E093F8F7
:10159000008006FA02F918EA090F02D04FF001089C
:1015A00001E04FF000082CF8028B521CD2B2082A3E
:1015B00001D300225B1C6D1CADB28D42E7D3677175
:1015C000A368DFF8D4C05A78032A01D0042A24D1B2
:1015D0007D2901D9032050E700EB0108B8F1C80FBD
:1015E00001D3022049E70CEB40024D009D70DB1C4B
:1015F00005460CE0B2F800904FEA192903F8019B68
:1016000092F8009003F8019B921C6D1CADB2A845A6
:10161000F0D8A2689278521D6271A2685378062BA6
:101620000ED1C82801D3022027E72CF81010642817
:1016300000D32670A0F16403142B00D86670677184
:101640005378102B22D100EB0108B8F1C80F01D359
:10165000022012E7D21D0CEB400103460CE012F809
:10166000015B2D020D8012F801CB4CEA050CA1F8AC
:1016700000C0891C5B1C9BB29845F0D8642800D33D
:1016800026706438142800D2667067710020F4E672
:101690002400002078020020E800002010B59AB055
:1016A0001D4A1C48906000F58070D060A0F58464ED
:1016B0000121A4F8C810B4F9CA0060280BD0C028D2
:1016C00009D0B0F5C07F06D04FF49063984202D0A5
:1016D000A4F8CA301170012901DDFF2902DBA4F84A
:1016E000C8101170FFF7A0FEC8346421608810FB99
:1016F00001F0FFF745FEB4F90230B4F9002007A16C
:1017000001A801F06DF801A90E4801F055F81AB0D2
:1017100010BD000008040020240000202050726F3B
:101720006772616D20496E697469616C697A652EB2
:101730002E2E204164723A25642C20426175643A51
:10174000256400000010014070B5104CE0880528A9
:101750001AD9A068E168A160E060A0782071002536
:10176000A5700122E27008280DD308780849B1F964
:10177000C810884207D1FFF773FE10B1FFF7C6FB10
:1017800001E000F047F8E58070BD00002400002073
:10179000E80000207047000030B50F23C278012513
:1017A0000178002A1FD0154A126802F4E062C2F5DF
:1017B000E062C2F30722C2F10404D3404278A2409F
:1017C00084781C401443220101F1E02181F80024B7
:1017D000007800F01F018D404009800000F1E020FA
:1017E000C0F8005130BD01F01F008540480980005D
:1017F00000F1E020C0F8805130BD00000CED00E0A9
:101800000249084302490860704700000000FA05D9
:101810000CED00E070B5124D6879801EC1B2A86869
:10182000FFF762FA6A79A9680A4402F8020C6A7939
:10183000000A114401F8010C00240A4E0BE0A868CC
:10184000015D304600F090FF4021304600F0E8FE98
:101850000028F9D0641C68798442F0DB70BD000078
:101860002400002000100140124A32F81130038099
:101870004B1C32F8133043808B1C32F813308380BA
:10188000CB1C32F81330C3800B1D32F813300381A8
:101890004B1D32F8133043818B1D32F81330838196
:1018A000C91D32F81110C18100214161816181831C
:1018B000C1837047E800002030B5C189002934D0C9
:1018C000018AC288891A09B24388B0F91C2013FB27
:1018D00002F3B0F91E40554201EB45052C44B0F926
:1018E000045005FB04338C1A1C44B0F900305C43EF
:1018F000C28381834369818909B1191900E0191BE9
:1019000042895AB102894FF47A7412FB04F291426F
:1019100000DD11465242914200DA11464FF47A72CC
:1019200091FBF2F242828361416130BD104A32F88C
:10193000113003804B1C32F8133043808B1C32F87B
:1019400013308380CB1C32F81330C3800B1D32F868
:10195000133003814B1D32F8133043818B1D32F855
:1019600013308381C91D32F81110C1817047000006
:10197000E800002070470000054A002903D01168E4
:101980000143116070471168814311607047000086
:1019900030380240054A002903D011680143116024
:1019A0007047116881431160704700004038024061
:1019B000054A002903D0116801431160704711687E
:1019C00081431160704700004438024070B5244BD9
:1019D000196801F00C01234C00291ED0224E042965
:1019E0001DD008291DD00460196801F0F001090913
:1019F0001E4A545C0168E14041601C6804F4E054F4
:101A0000A40A145D21FA04F484601B6803F46043A3
:101A10005B0BD25CD140C16070BD0460E4E706603E
:101A2000E2E70F4A121F1168C1F38055116801F0F7
:101A30003F0135B1B6FBF1F11468C4F3881461437A
:101A400005E0B4FBF1F11468C4F388146143126833
:101A5000C2F30142521C5200B1FBF2F10160C3E734
:101A6000083802400024F40040787D011400002072
:101A7000F0B587B0064601210220FFF77DFF012166
:101A80008804FFF787FF00248DF81A4001208DF8A5
:101A90001B0002258DF819508DF81850C1020591D0
:101AA0001B4F05A93846FFF7C3FB8DF81850680295
:101AB000059005A93846FFF7BBFB07220A213846E7
:101AC000FFF7F4FB07220B213846FFF7EFFB6420FA
:101AD00046430196ADF80840ADF80A40ADF80C4019
:101AE000ADF810400C20ADF80E000A4C01A92046BC
:101AF00000F0D8FD00F03EF8012240F225512046CA
:101B000000F0B5FD0121204600F07EFD07B0F0BDDC
:101B1000000402400048004070B5134DB5F8D600EF
:101B200060280AD0C02808D04FF4C071884204D081
:101B3000B0F5906F01D0A5F8D610B5F8D600FFF734
:101B400097FF0A4C0020A070E070A88495F8DC0094
:101B5000052101EB40002070FFF7BAFB6060BDE893
:101B60007040034800F0CBBBE80000204C00002090
:101B70007008002008B54FF4A060FFF741FE272051
:101B80008DF8000001208DF8010003218DF802106E
:101B90008DF803006846FFF7FFFD08BD2DE9F04111
:101BA0002B4DA878297888424FD32A4E2A4C30787A
:101BB000B4F8D810884248D17078032845D1B0785D
:101BC000B4F8DC10B0EB410F3FD1FFF781FBA18AE5
:101BD000A183E28AE283228B22843279F37842EA7B
:101BE0000322A282AB88C31A9BB2E3826860501AB8
:101BF00020834FF480664FF44067B24205D2B94269
:101C000003D900F5805CA4F818C0BA4204D9B142E7
:101C100002D2A0F58050208333B1208B4FF47A712B
:101C20004843B0FBF3F06083B4F91620B4F9181000
:101C30000A4800F044FB094800F034FB6084E08C63
:101C4000401CE0840020E870A870BDE8F08100002E
:101C50004C00002070070020E800002070080020E1
:101C60002DE9F041184D1949E878012802D1888CF6
:101C7000401C88840027AF700120E870144E6A78F9
:101C80003078104317D0104C11F8D80F083420705A
:101C90004888020AA270E0708888010A2171607188
:101CA00006212046FFF720F8A071000AE071307885
:101CB000401C30706F70BDE8F041034908220831C4
:101CC000044800F062BD00004C000020E800002045
:101CD0002500002000480040F0B587B006460121ED
:101CE0001020FFF749FE01218807FFF753FE00246B
:101CF0008DF81A4001208DF81B0002258DF819502F
:101D00008DF81850010205911B4F05A93846FFF7C1
:101D10008FFA8DF818508020059005A93846FFF7F6
:101D200087FA082207213846FFF7C0FA0822114631
:101D30003846FFF7BBFA642046430196ADF80840E9
:101D4000ADF80A40ADF80C40ADF810400C20ADF8ED
:101D50000E000A4C01A9204600F0A4FC00F03EF859
:101D6000012240F22551204600F081FC012120464D
:101D700000F04AFC07B0F0BD0010024000780040BF
:101D800070B5134DB5F8DE0060280AD0C02808D021
:101D90004FF4C071884204D0B0F5906F01D0A5F81F
:101DA000DE10B5F8DE00FFF797FF0A4C0020A070A8
:101DB000E070288795F8E400052101EB40002070D1
:101DC000FFF786FA6060BDE87040034800F097BAFC
:101DD000E80000205C000020A409002008B54FF4B2
:101DE000A060FFF70DFD52208DF8000001208DF856
:101DF000010003218DF802108DF803006846FFF7FB
:101E0000CBFC08BD2DE9F0412B4DA87829788842FC
:101E10004FD32A4E2A4C3078B4F8E010884248D18B
:101E20007078032845D1B078B4F8E410B0EB410FD6
:101E30003FD1FFF74DFA218D2186628D6286A28DFA
:101E4000A2863279F37842EA03222285AB88C31A4C
:101E50009BB263856860501AA0854FF480664FF48A
:101E60004067B24205D2B94203D900F5805CA4F8BC
:101E70002CC0BA4204D9B14202D2A0F58050A0854C
:101E800033B1A08D4FF47A714843B0FBF3F0E08595
:101E9000B4F92A20B4F92C100A4800F010FA0948C5
:101EA00000F000FAE086608F401C60870020E87038
:101EB000A870BDE8F08100005C000020A4080020AC
:101EC000E8000020A40900202DE9F041184D19492F
:101ED000E878012802D1088F401C08870027AF70DE
:101EE0000120E870144E6A783078104317D0104CF7
:101EF00011F8E00F083420704888020AA270E070E0
:101F00008888010A2171607106212046FEF7ECFEE7
:101F1000A071000AE0713078401C30706F70BDE82D
:101F2000F041034908220831044800F02EBC0000AB
:101F30005C000020E8000020250000200078004020
:101F4000F0B587B0064601210846FFF715FD0121CF
:101F50004804FFF71FFD00248DF81A4001208DF87A
:101F60001B0002258DF819508DF818500821059195
:101F70001B4F05A93846FFF75BF98DF81850042070
:101F8000059005A93846FFF753F907220221384684
:101F9000FFF78CF9072203213846FFF787F9642001
:101FA00046430196ADF80840ADF80A40ADF80C4044
:101FB000ADF810400C20ADF80E000A4C01A92046E7
:101FC00000F070FB00F03EF8012240F2255120465F
:101FD00000F04DFB0121204600F016FB07B0F0BDDC
:101FE000000002400044004070B5134DB5F8E60013
:101FF00060280AD0C02808D04FF4C071884204D0AD
:10200000B0F5906F01D0A5F8E61035F8E60FFFF7B0
:1020100097FF0A4C0020A070E07025F89A0CA87970
:10202000052101EB40002070FFF752F96060BDE828
:102030007040034800F063B9E80000203C00002035
:102040003C07002008B54FF4A060FFF7D9FB26201D
:102050008DF8000001208DF8010003218DF8021099
:102060008DF803006846FFF797FB08BD2DE9F041A6
:102070002D4DA8782978884254D32C4E2C4C30789A
:10208000B4F8E81088424DD1707803284AD1B0786E
:10209000B4F8EC10B0EB410F44D1FFF719F934F864
:1020A0003C1F218162886281A288A2813279F37803
:1020B00042EA03222280AB88C31A9BB26380686025
:1020C000501AA0803C3C4FF480664FF44067B24207
:1020D00005D2B94203D900F5805CA4F840C0BA42E9
:1020E00005D9B14203D2A0F58050A4F8400043B115
:1020F000B4F840004FF47A714843B0FBF3F0A4F811
:10210000420034F93E2F0B48B4F9021000F0D7F822
:10211000084800F0C7F8A081208A401C20820020D7
:10212000E870A870BDE8F0813C0000203C0600206B
:10213000E80000203C0700202DE9F041194D1A4924
:10214000E878012804D1B1F84C00401CA1F84C00FB
:102150000027AF700120E870144E6A783078104381
:1021600017D0104C11F8E80F083420704888020A84
:10217000A270E0708888010A2171607106212046F2
:10218000FEF7B2FDA071000AE0713078401C30709B
:102190006F70BDE8F041034908220831044800F09F
:1021A000F4BA00003C000020E800002025000020D8
:1021B00000440040704700001CB5002101910091CF
:1021C0002E4A106840F4803010604FF4A04310682D
:1021D00000F4003000900198401C0190009810B964
:1021E00001989842F3D11068800302D50120009035
:1021F00000E00091009801283FD12048403001685C
:1022000041F0805101601E49086840F44040086078
:102210001A48083003680360036843F4004303600E
:10222000036843F4A0530360041F164B2360136834
:1022300043F08073136013689B01FCD50A6842F475
:1022400080320A604A68D203FCD50A6842F4003240
:102250000A604A689203FCD50B4A40F2057111608E
:10226000016821F003010160016841F00201016091
:102270000168C1F381010229FAD11CBD0038024076
:1022800000700040195A4007003C02400A2806D25C
:10229000034A491C22F81010143222F8101070471B
:1022A000080600208168002907D040684FF47A7240
:1022B000504390FBF1F000B270470020704730B5FA
:1022C00043685C184460038800EB4303B3F90C5087
:1022D000641B4460846814448460B3F92050641B18
:1022E00084609981018800EB41010A840188491CBE
:1022F00089B201800A2901D30021018030BD002369
:102300000380438043608360002100EB410293819E
:102310001384491C0A29F8DB7047000010B5FFF749
:1023200097F80C484168491C4160016811B901687F
:10233000491E01600020084931F81020012A04D903
:1023400031F81020521E21F81020401C0A28F3DB1F
:1023500010BD0000340000201C06002010B51648F7
:1023600042F210710068B0FBF1F0401E00214FF006
:10237000E022B0F1807F01D3012007E050610F4BD4
:10238000F0201870916107201061002000B1FEE775
:10239000106960F0010010610020094A02F1140385
:1023A00002F1280422F8101023F810102154401CC8
:1023B0000A28F7DB10BD00000000002023ED00E03C
:1023C0000806002010B51248016841F47001016050
:1023D0001048016841F0010101600E4A00210832F5
:1023E000116002680C4B1A400260031D0B4A1A6010
:1023F000026822F48022026006480C300160FFF778
:10240000DBFE03494FF000608039086010BD00001A
:1024100088ED00E000380240FFFFF6FE1030002497
:1024200070B5104C40F22551204600F000F940B143
:10243000204600F095F90C4B99784A1C9A700B4A8B
:10244000505440F227752946204600F0F0F8002845
:1024500006D029462046BDE87040002200F007B9AA
:1024600070BD0000007800405C000020A40800203F
:1024700070B5164C40F22551204600F0D8F8A8B1AE
:10248000204600F06DF9C1B2114B0025D87860B13B
:102490001048B0F9C800884202D0987800B9DD70C1
:1024A0009A78501C9870D8688154DD8040F2277566
:1024B0002946204600F0BBF8002806D029462046D1
:1024C000BDE87040002200F0D2B870BD001001409D
:1024D00024000020E800002070B5104C40F2255187
:1024E000204600F0A4F840B1204600F039F90C4B2A
:1024F00099784A1C9A700B4A505440F22775294625
:10250000204600F094F8002806D029462046BDE871
:102510007040002200F0ABB870BD000000440040E5
:102520003C0000203C06002070B5104C40F22551C4
:10253000204600F07CF840B1204600F011F90C4B29
:1025400099784A1C9A700B4A505440F227752946D4
:10255000204600F06CF8002806D029462046BDE849
:102560007040002200F083B870BD000000480040B9
:102570004C0000207007002070B51F4D40F225511F
:10258000284600F054F838B3284600F0E9F8C1B204
:1025900001261A481A4C2A290BD122780A2A08D96E
:1025A000637833B9531CDBB2237081540022C254C8
:1025B0006670227822B1637813B9531C237081545A
:1025C000242909D122783AB962782AB92670017093
:1025D0000C48C189491CC18140F227742146284614
:1025E00000F025F8002806D021462846BDE87040B6
:1025F000002200F03CB870BD00140140D809002052
:102600006C000020E8000020002904D0818941F4FA
:10261000005181817047818921F400518181704787
:102620000246002012880A4200D00120704770B58F
:10263000002440F66A12C1F3421301F01F0501267F
:1026400006FA05F2012B0CD0022B0DD0838A134021
:10265000090A8E40008830400BB100B101242046A9
:1026600070BD83891340F3E7038A1340F0E710B588
:1026700040F66A13C1F3421301F01F040121A14087
:10268000012B07D0022B07D014303AB102680A435D
:10269000026010BD0C30F8E71030F6E702688A439C
:1026A000026010BD7FB504460D46208A20F44051DB
:1026B000E88808432082A08941F20C618843A988F8
:1026C0002A8911436A8902431143A181A08A20F417
:1026D0004071A8890843A0826846FFF777F91E4831
:1026E000844202D01D48844201D1039800E0029840
:1026F000A189090408D500EBC00101EB001029688D
:102700004900B0FBF1F007E000EBC00101EB001065
:1027100029688900B0FBF1F06422B0FBF2F10901F5
:102720000B096FF018056B4300EB8300A3891D04B0
:102730004FF0320307D503EBC000B0FBF2F000F01E
:102740000700084306E003EB0010B0FBF2F000F0D6
:102750000F00084320817FBD00100140001401409C
:102760008088C0F308007047C1F30801818070477A
:10277000FEE710B504462046FFF7F6FF802120460D
:10278000FFF74EFF0028F9D010BD2DE9F0410746B4
:102790000D46164600240BE015F8011B3846FFF7DE
:1027A000E3FF80213846FFF73BFF0028F9D0641C87
:1027B000B442F1DBBDE8F08170B506460D46002459
:1027C0003046295DFFF7D5FF641C285D0028F7D14E
:1027D00040213046FFF724FF0028F9D070BD0000EB
:1027E0000FB4084B10B504A902AA039800F022F810
:1027F000044602A9002000F0C7F8204610BC5DF88E
:1028000014FB00008929000802E008C8121F08C153
:10281000002AFAD170477047002001E001C1121F61
:10282000002AFBD1704730380A2801D201207047B6
:10283000002070472DE9FF4F89B09B4604460025D4
:1028400006E025280BD05A460B999047641C6D1C56
:1028500020780028F5D10DB02846BDE8F08F00277C
:10286000B8460122474900E0074314F8013F203BE6
:1028700002FA03F00842F7D120782E2819D114F873
:10288000010F47F004072A280ED06FF02F0220789E
:10289000A0F1300109290CD808EB880102EB4101B5
:1028A00000EB0108641CF2E70A98641C50F8048BE2
:1028B0000A9020780028CED0642808D0692806D055
:1028C00075281ED05A460B9990476D1C58E00A99FE
:1028D0004FF00A0901C90A91002802DA40422D216D
:1028E00002E0390504D52B218DF82010012103E0E9
:1028F000F90704D02021F7E78A4608AE0DE0002151
:10290000FAE70A994FF00A0901C90A91F7E749461F
:10291000FDF720FE303106F8011D0028F7D1ADEBA0
:10292000060000F12009780701D44FF00108C845DE
:1029300002DDA8EB090000E000208046002706E049
:1029400008A85A46C05D0B9990476D1C7F1C5745DF
:10295000F6DB04E030205A460B9990476D1CB8F125
:102960000001A8F10108F5DC05E016F8010B5A4654
:102970000B9990476D1CB9F10001A9F10109F4DC34
:10298000641C65E7092801000A68531C0B6010707D
:1029900070470000FFF7E2FCFEF720FC544ADFF826
:1029A0005481914664214046FEF7DAFB504CC83C06
:1029B000B4F8CC00401CA4F8CC004F4D0120287086
:1029C000FEF76CFEFEF7F8F9FFF7A6F8FFF7D8F967
:1029D000FFF70AFB4FF4FA710020FFF757FC4FF4A2
:1029E0007A7631460120FFF751FC31460220FFF78D
:1029F0004DFC64210320FFF749FCFEF784FC78219D
:102A00003E48FEF731FF3D4882212030FEF72CFF83
:102A10003A488C214030FEF727FF394E0027FEF759
:102A200093FEFEF7FBF9FFF7B9F8FFF7EBF9FFF7B5
:102A30001DFB0020FEF752FC50B1FEF77FFC314831
:102A4000016881F40051016030780A2800D937709C
:102A50000120FEF743FCA8B1287898B14A466421CA
:102A60004046FEF789FB78212448FEF75FFF2348A4
:102A700082212030FEF75AFF20488C214030FEF79B
:102A800055FF2F700220FEF729FC20B3DFF86CA061
:102A9000608CAAF810005046FEF70EFFBAF812003C
:102AA000A4F800010AF1200AE08EAAF810005046AE
:102AB000FEF702FFBAF81200A4F814010AF1200A86
:102AC000B4F84A00AAF810005046FEF7F5FEBAF82E
:102AD0001200A4F828010320FEF700FC00289ED075
:102AE000FFF7BEF8FFF7F0F9FFF726FB97E70000C6
:102AF000B001002000000108240000208800002010
:102B000025000020140402400000C1C081C1400122
:102B100001C3C003800241C201C6C006800741C78D
:102B20000005C1C581C4400401CCC00C800D41CD5D
:102B3000000FC1CF81CE400E000AC1CA81CB400B2D
:102B400001C9C009800841C801D8C018801941D9FD
:102B5000001BC1DB81DA401A001EC1DE81DF401F8D
:102B600001DDC01D801C41DC0014C1D481D540159D
:102B700001D7C017801641D601D2C012801341D3AD
:102B80000011C1D181D0401001F0C030803141F13D
:102B90000033C1F381F240320036C1F681F740378D
:102BA00001F5C035803441F4003CC1FC81FD403D5D
:102BB00001FFC03F803E41FE01FAC03A803B41FB2D
:102BC0000039C1F981F840380028C1E881E940297D
:102BD00001EBC02B802A41EA01EEC02E802F41EF8D
:102BE000002DC1ED81EC402C01E4C024802541E59D
:102BF0000027C1E781E640260022C1E281E34023AD
:102C000001E1C021802041E001A0C060806141A1BC
:102C10000063C1A381A240620066C1A681A740678C
:102C200001A5C065806441A4006CC1AC81AD406D5C
:102C300001AFC06F806E41AE01AAC06A806B41AB2C
:102C40000069C1A981A840680078C1B881B94079FC
:102C500001BBC07B807A41BA01BEC07E807F41BF8C
:102C6000007DC1BD81BC407C01B4C074807541B59C
:102C70000077C1B781B640760072C1B281B34073AC
:102C800001B1C071807041B00050C190819140513C
:102C90000193C053805241920196C056805741978C
:102CA0000055C19581944054019CC05C805D419D5C
:102CB000005FC19F819E405E005AC19A819B405B2C
:102CC0000199C059805841980188C048804941897C
:102CD000004BC18B818A404A004EC18E818F404F8C
:102CE000018DC04D804C418C0044C184818540459C
:102CF0000187C047804641860182C04280434183AC
:102D00000041C18181804040DDDDDDDDDCBBBBDD1C
:102D1000DDDDDDDDDDDDDDDD98888888888888887B
:102D2000777777777788888885555556666666669B
:102D3000666666666668888883333332222222227A
:102D4000222222222228888D682D000800000020DF
:102D50008800000008280008F02D000888000020E6
:102D6000500E0000182800080095BA0A0000000064
:102D7000000000000102030406070809000000002B
:102D80000102030401020304060708090000000011
:102D90000000000000000000000000000000000033
:102DA00000000000550100000000000001030000C9
:102DB00000010000550100000000000001030000B8
:102DC00000010000550100000000000001030000A8
:102DD00000010000000000000000000000000000F2
:102DE00000000000000000000000000000000000E3
:04000005080001AD41
:00000001FF
